:100000000C942A000C94B01F0C94E31F0C9416203F
:100010000C94F5160C94C2160C94181B0C944B1BE4
:100020000C947E1B0C94B11B0C946B1D0C94381D0E
:100030000C942B1E0C9477130C94AA130C94DD13C0
:100040000C94DC240C9447000C9447000C949015FD
:100050000C94470011241FBECFE5D8E0DEBFCDBF12
:1000600011E0A0E6B0E0E8EAF6E702C005900D92E4
:10007000A839B107D9F711E0A8E9B1E001C01D9294
:10008000AB3DB107E1F70E94BB3A0C94523B0C9494
:100090000000EF92FF920F93DF93CF93CDB7DEB7BF
:1000A00060970FB6F894DEBF0FBECDBFA82F002318
:1000B00009F461C07E010894E11CF11C88E0F7019D
:1000C00011928A95E9F729833A834B835C836D8388
:1000D0007E83AF83988780E2801BE82FFF27E7FDB0
:1000E000F09549815A816B817C81181684F01986BC
:1000F0001A861B861C86882799278E1B9F0B04C097
:10010000440F551F661F771F8A95D2F728C0202FEE
:10011000332727FD3095DB01CA01022E04C0880F6A
:10012000991FAA1FBB1F0A94D2F789879A87AB87AA
:10013000BC8704C07695679557954795EA95D2F7A1
:100140008D819E81AF81B88504C0880F991FAA1F39
:10015000BB1F2A95D2F7482B592B6A2B7B2B4D8737
:100160005E876F87788B29853A854B855C856D85A1
:100170007E85AF8598898A2F60960FB6F894DEBF8A
:100180000FBECDBFCF91DF910F91FF90EF900895FB
:10019000EF92FF920F931F937B018C0120E030E0E0
:1001A00040E05FE40E94E90A88238CF0C801B701AF
:1001B00020E030E040E05FE40E94B5080E94490B77
:1001C0009B01AC01205030404040504806C0C8015F
:1001D000B7010E94490B9B01AC01B901CA011F91F3
:1001E0000F91FF90EF900895AEE5B0E0EAEFF0E0F8
:1001F0000C941B3BA8E04E010894811C911CF40157
:100200006A2E11926A94E9F729833A834B835C83BF
:100210006D837E838F839887CE010996FC011192AE
:10022000AA95E9F7A986BA86CB86DC86ED86FE8696
:100230000F87188B29843A844B845C84ED84FE8478
:100240000F85188969807A808B809C806DA67EA638
:100250008FA698AA6D807E808F809884E114F10427
:100260000105110509F0B3C36214730484049504F5
:1002700008F03DC100E0201600E0300601E0400635
:1002800000E0500688F41FEF2116310441045104A8
:1002900039F030F048E0E42EF12C012D112D18C07A
:1002A000EE24FF24870114C020E0221620E032064D
:1002B00020E0420621E0520630F038E1E32EF12C36
:1002C000012D112D05C020E1E22EF12C012D112D63
:1002D000D201C1010E2C04C0B695A79597958795BC
:1002E0000A94D2F788599F4FDC012C9180E290E06C
:1002F000A0E0B0E08E199F09A00BB10B7C018D012D
:10030000E21AF10801091109E114F10401051105CE
:10031000A1F10E2C04C0220C331C441C551C0A9461
:10032000D2F7A40193010E2C04C0220F331F441FE7
:10033000551F0A94D2F780E290E08E199F096DA4B0
:100340007EA48FA498A804C0969487947794679409
:100350008A95D2F7622A732A842A952AADA4BEA46C
:10036000CFA4D8A804C0AA0CBB1CCC1CDD1CEA94EA
:10037000D2F7ADA6BEA6CFA6D8AA6201EE24FF246E
:10038000CDAADEAAEFAAF8AE9201810120703070EA
:1003900009AF1AAF2BAF3CAFC401B301A70196015F
:1003A0000E94F93A7B018C01C401B3012DA93EA939
:1003B0004FA958AD0E94F93AC901DA013C014D013B
:1003C000C401B30129AD3AAD4BAD5CAD0E94C63A54
:1003D0009B01AC018701FF24EE24ADA4BEA4CFA4F1
:1003E000D8A8C601AA27BB2757016801A82AB92A9D
:1003F000CA2ADB2AA216B306C406D506E0F408947E
:100400006108710881089108A20CB31CC41CD51C9A
:10041000A214B304C404D50470F0A216B306C40633
:10042000D50648F408946108710881089108A20C67
:10043000B31CC41CD51CA21AB30AC40AD50AC6012F
:10044000B5012DA93EA94FA958AD0E94F93A7B01EB
:100450008C01C601B5012DA93EA94FA958AD0E9436
:10046000F93AC901DA015C016D01C601B50129AD96
:100470003AAD4BAD5CAD0E94C63A9B01AC01870121
:10048000FF24EE248DA59EA5AFA5B8A9A070B070DD
:10049000E82AF92A0A2B1B2BE216F3060407150794
:1004A000C0F40894A108B108C108D108E20CF31CFB
:1004B000041D151DE214F3040405150550F0E216A1
:1004C000F3060407150728F40894A108B108C10829
:1004D000D108D3019927882786017501E82AF92ACE
:1004E0000A2B1B2BE9AAFAAA0BAB1CABCFC4211415
:1004F00031044104510471F461E070E080E090E067
:1005000020E030E040E050E00E94F93AC901DA0111
:100510001C012D0100E0201600E0300601E040063D
:1005200000E0500688F41FEF211631044104510405
:1005300031F028F048E050E060E070E017C040E0A3
:1005400050E060E070E012C020E0221620E03206A9
:1005500020E0420621E0520628F048E150E060E049
:1005600070E004C040E150E060E070E0D201C10101
:10057000042E04C0B695A795979587950A94D2F74F
:1005800088599F4FDC012C91E0E2EE2EF12C012DD9
:10059000112DD801C701841B950BA60BB70B821B2D
:1005A0009109A109B1090097A105B10561F46401A0
:1005B0005301A218B308C408D50831E0632E712C8A
:1005C000812C912C1EC16F968FAF6F97082E04C09F
:1005D000220C331C441C551C0A94D2F7EE2DE81B48
:1005E000640153010E2E04C0D694C794B794A79407
:1005F0000A94D2F7A40193016F960FAC6F9704C0D1
:10060000220F331F441F551F0A94D2F76DA47EA4F6
:100610008FA498A80E2E04C096948794779467941C
:100620000A94D2F784017301E22AF32A042B152BD2
:10063000E9A6FAA60BA71CA73201882499249201E7
:1006400081012070307021960CAF1DAF2EAF3FAFEF
:100650002197C601B501A40193010E94F93A7B01DB
:100660008C01C601B501A40193010E94F93AC901A8
:10067000DA0125968CAF9DAFAEAFBFAF2597BC0119
:10068000CD0121962CAD3DAD4EAD5FAD21970E94C1
:10069000C63A9B01AC018701FF24EE24A9A4BAA4A9
:1006A000CBA4DCA4C601AA27BB275C016D01AE2840
:1006B000BF28C02AD12AA216B306C406D50660F503
:1006C00025966CAD7DAD8EAD9FAD25976150704088
:1006D0008040904025966CAF7DAF8EAF9FAF259741
:1006E000A20CB31CC41CD51CA214B304C404D504AE
:1006F00098F0A216B306C406D50670F46150704097
:100700008040904025966CAF7DAF8EAF9FAF259710
:10071000A20CB31CC41CD51CA21AB30AC40AD50A65
:10072000C601B501A40193010E94F93A7B018C0135
:10073000C601B501A40193010E94F93AC901DA0189
:100740003C014D01C401B30121962CAD3DAD4EAD30
:100750005FAD21970E94C63A9B01AC018701FF243F
:10076000EE2489A59AA5ABA5BCA5A070B0705701D1
:100770006801A82AB92ACA2ADB2AA216B306C40627
:10078000D506E0F408946108710881089108A20C6C
:10079000B31CC41CD51CA214B304C404D50470F04B
:1007A000A216B306C406D50648F408946108710879
:1007B00081089108A20CB31CC41CD51C8DA59EA554
:1007C000AFA5B8A96F960FAC6F9704C0880F991F9B
:1007D000AA1FBB1F0A94D2F78DA79EA7AFA7B8ABDD
:1007E000A21AB30AC40AD50A2596ECACFDAC0EAD2C
:1007F0001FAD2597D70199278827682A792A8A2A41
:100800009B2A82012227332729960CAF1DAF2EAFDA
:100810003FAF2997A2019101407050702D962CAFE7
:100820003DAF4EAF5FAF2D97C601B50129962CADF8
:100830003DAD4EAD5FAD29970E94F93A7B018C0129
:10084000C601B50129962CAD3DAD4EAD5FAD2997E2
:100850000E94F93AC901DA0161968CAF9DAFAEAF43
:10086000BFAF6197BC01CD012D962CAD3DAD4EAD16
:100870005FAD2D970E94C63A9B01AC018701FF2412
:10088000EE24ADA4BEA4CFA4D8A8C601AA27BB2736
:1008900057016801A82AB92ACA2ADB2AA216B30678
:1008A000C406D50660F561966CAD7DAD8EAD9FAD8D
:1008B0006197615070408040904061966CAF7DAF11
:1008C0008EAF9FAF6197A20CB31CC41CD51CA214A1
:1008D000B304C404D50498F0A216B306C406D50622
:1008E00070F4615070408040904061966CAF7DAF75
:1008F0008EAF9FAF6197A20CB31CC41CD51CA21A6B
:10090000B30AC40AD50AC601B50129962CAD3DAD7E
:100910004EAD5FAD29970E94F93A7B018C01C6016B
:10092000B50129962CAD3DAD4EAD5FAD29970E9426
:10093000F93AC901DA015C016D01C601B5012D96D4
:100940002CAD3DAD4EAD5FAD2D970E94C63A9B01DB
:10095000AC018701FF24EE248DA59EA5AFA5B8A903
:10096000A070B070E82AF92A0A2B1B2BE216F306B6
:1009700004071507C0F40894A108B108C108D108FC
:10098000E20CF31C041D151DE214F3040405150507
:1009900050F0E216F3060407150728F40894A1089E
:1009A000B108C108D1086196ECACFDAC0EAD1FAD2D
:1009B0006197D7019927882796018501082B192B64
:1009C0002A2B3B2B09AB1AAB2BAB3CAB62C26E1490
:1009D0007F048006910608F451C220E0E21620E070
:1009E000F20621E0020720E0120788F43FEFE31649
:1009F000F1040105110531F028F048E050E060E015
:100A000070E017C040E050E060E070E012C040E0ED
:100A1000E41640E0F40640E0040741E0140728F043
:100A200048E150E060E070E004C040E150E060E088
:100A300070E0D801C701042E04C0B695A79597951C
:100A400087950A94D2F788599F4FDC012C9130E2A8
:100A5000A32EB12CC12CD12CD601C501841B950B22
:100A6000A60BB70B821B9109A109B1090097A1053B
:100A7000B10589F4E614F7040805190508F4F2C174
:100A80006DA47EA48FA498A86214730484049504B2
:100A900008F0E8C1F3C16E968FAF6E97082E04C0C0
:100AA000EE0CFF1C001F111F0A94D2F76A2D681B61
:100AB000D201C101062E04C0B695A79597958795DA
:100AC0000A94D2F75C016D01AE28BF28C02AD12A52
:100AD000ADA2BEA2CFA2D8A6720161016E960FACE4
:100AE0006E9704C0CC0CDD1CEE1CFF1C0A94D2F7E0
:100AF000C9A2DAA2EBA2FCA264015301062E04C033
:100B0000D694C794B794A7940A94D2F7D401C3019A
:100B10006E960FAC6E9704C0880F991FAA1FBB1F5B
:100B20000A94D2F7EDA4FEA40FA518A904C0169547
:100B30000795F794E7946A95D2F737014801682A38
:100B4000792A8A2A9B2A6D8E7E8E8F8E98A2EDA09E
:100B5000FEA00FA118A538018824992498018701C7
:100B60002070307065960CAF1DAF2EAF3FAF65970C
:100B7000C601B501A40193010E94F93A7B018C01E1
:100B8000C601B501A40193010E94F93AC901DA0135
:100B90001C012D01C201B10165962CAD3DAD4EADDC
:100BA0005FAD65970E94C63A9B01AC018701FF24A7
:100BB000EE24AD8CBE8CCF8CD8A0C601AA27BB2753
:100BC00057016801A82AB92ACA2ADB2AA216B30645
:100BD000C406D50600F508942108310841085108DB
:100BE000EDA0FEA00FA118A5AE0CBF1CC01ED11E0B
:100BF000AE14BF04C006D10670F0A216B306C40638
:100C0000D50648F408942108310841085108AE0C73
:100C1000BF1CC01ED11EA21AB30AC40AD50AC6013F
:100C2000B501A40193010E94F93A7B018C01C60130
:100C3000B501A40193010E94F93AC901DA013C010E
:100C40004D01C401B30165962CAD3DAD4EAD5FAD18
:100C500065970E94C63A9B01AC018701FF24EE24F0
:100C60008D8D9E8DAF8DB8A1A070B07057016801B9
:100C7000A82AB92ACA2ADB2AA216B306C406D506B0
:100C800000F5089461087108810891086DA17EA1A2
:100C90008FA198A5A60EB71EC81ED91EA616B70608
:100CA000C806D90670F0A216B306C406D50648F4E5
:100CB00008946108710881089108A60EB71EC81E25
:100CC000D91ED601C501821B930BA40BB50B898FCE
:100CD0009A8FAB8FBC8FD10199278827640153016C
:100CE000A82AB92ACA2ADB2AA9AABAAACBAADCAAA4
:100CF000860175012FEF3FEF40E050E0E222F32242
:100D000004231523A601662777276D964CAF5DAFA8
:100D10006EAF7FAF6D97A9A0BAA0CBA0DCA06FEF9C
:100D20007FEF80E090E0A622B722C822D92289A1D5
:100D30009AA1ABA1BCA11D0144245524C801B7014F
:100D4000A60195010E94C63A69966CAF7DAF8EAF41
:100D50009FAF6997C801B701A20191010E94C63AED
:100D60003B014C016D966CAD7DAD8EAD9FAD6D9729
:100D7000A60195010E94C63A7B018C016D966CAD6F
:100D80007DAD8EAD9FAD6D97A20191010E94C63AD7
:100D90005B016C01A8019701260D371D481D591DE7
:100DA00069966CAC7DAC8EAC9FAC6997C401AA27E8
:100DB000BB27280F391F4A1F5B1F2E153F05400711
:100DC000510748F4E12CF12C61E0062F112DAE0CF7
:100DD000BF1CC01ED11ECA01AA27BB27BC01CD0162
:100DE0006A0D7B1D8C1D9D1D698C7A8C8B8C9C8C57
:100DF000661677068806990640F166157705880518
:100E0000990509F043C0D9019927882769962CAD27
:100E10003DAD4EAD5FAD699740705070820F931F2E
:100E2000A41FB51F2DA53EA54FA558A96E960FACC2
:100E30006E9704C0220F331F441F551F0A94D2F728
:100E4000281739074A075B0708F509A91AA92BA92A
:100E50003CA9015010402040304009AB1AAB2BABED
:100E60003CAB14C066247724430121E030E040E02D
:100E700050E029AB3AAB4BAB5CAB0BC0662477249C
:100E8000430119AA1AAA1BAA1CAA03C06624772424
:100E90004301FE01719688E0DF011D928A95E9F712
:100EA000A9A8BAA8CBA8DCA8A98ABA8ACB8ADC8A66
:100EB0006D8A7E8A8F8A988E29A93A894B895C89A6
:100EC000662D7E898F89988DC25ADF4FE2E10C949E
:100ED000373BA0E0B0E0EFE6F7E00C941B3BDC0111
:100EE0002B01FA019C91923008F439C1EB01888101
:100EF000823008F433C1943069F4843009F02FC192
:100F000011969C9111978981981709F428C1A0E640
:100F1000B0E025C1843009F421C18230A9F49230B7
:100F200009F01DC19A01AD0188E0EA010990AE0106
:100F3000E90109929E018150C1F7E2018981119670
:100F40009C918923818308C1923009F407C11296CC
:100F50002D903C901397EB018A819B811496AD9064
:100F6000BD90CD90DC901797EC80FD800E811F81A5
:100F70009101281B390BB90137FF04C06627772779
:100F8000621B730B603271050CF061C01216130600
:100F90006CF537014801062E04C096948794779427
:100FA00067940A94D2F721E030E040E050E004C0BA
:100FB000220F331F441F551F6A95D2F7215030402E
:100FC000404050402E213F2140235123211531051F
:100FD0004105510521F021E030E040E050E0790189
:100FE0008A01E628F728082919293CC0232BD1F1CA
:100FF000260E371E35014601062E04C096948794AE
:10100000779467940A94D2F721E030E040E050E012
:1010100004C0220F331F441F551F6A95D2F7215079
:101020003040404050402A213B214C215D21211578
:1010300031054105510521F021E030E040E050E06C
:1010400059016A01A628B728C828D9280BC08215DB
:1010500093052CF01C01AA24BB24650103C0EE24D7
:10106000FF24870111969C91D20111968C919817BB
:1010700009F445C0992339F0A80197012A193B09C1
:101080004C095D0906C0A60195012E193F09400BC8
:10109000510B57FD08C0118233822282248335838D
:1010A000468357831DC081E0818333822282882753
:1010B0009927DC01821B930BA40BB50B84839583CA
:1010C000A683B7830DC0220F331F441F551F2483EF
:1010D00035834683578382819381019793838283EB
:1010E0002481358146815781DA01C9010197A1091F
:1010F000B1098F5F9F4FAF4FBF4328F30BC0918360
:1011000033822282EA0CFB1C0C1D1D1DE482F58239
:101110000683178383E0808324813581468157814C
:1011200057FF1AC0C901AA2797FDA095BA2F817051
:101130009070A070B0705695479537952795822B83
:10114000932BA42BB52B84839583A683B7838281AD
:101150009381019693838283DF0101C0D201CD0187
:10116000CDB7DEB7E2E10C94373BA0E2B0E0EBEBA9
:10117000F8E00C94273B69837A838B839C832D83CF
:101180003E834F835887E9E0EE2EF12CEC0EFD1ED6
:10119000CE010196B7010E943A0D8E010F5E1F4FDE
:1011A000CE010596B8010E943A0D8A8991E08927FF
:1011B0008A8BC701B801AE01475E5F4F0E94690785
:1011C0000E94650CA096E6E00C94433BA0E2B0E0E0
:1011D000ECEEF8E00C94273B69837A838B839C8345
:1011E0002D833E834F835887F9E0EF2EF12CEC0ED0
:1011F000FD1ECE010196B7010E943A0D8E010F5ED1
:101200001F4FCE010596B8010E943A0DC701B801E3
:10121000AE01475E5F4F0E9469070E94650CA09671
:10122000E6E00C94433BA0E2B0E0E9E1F9E00C9485
:101230001B3B69837A838B839C832D833E834F83FF
:101240005887CE010196BE01675F7F4F0E943A0D1D
:10125000CE010596BE016F5E7F4F0E943A0D9985C3
:10126000923088F089898230C8F0943019F4823045
:1012700051F404C0843029F4923081F480E690E087
:10128000C6C0923049F420E09A858A89981321E0FB
:101290002A87CE010996BBC0823049F420E09A85A6
:1012A0008A89981321E02A8BCE014196B0C02D8403
:1012B0003E844F8458886D887E888F88988CEE2471
:1012C000FF248701AA24BB24650140E050E060E0D0
:1012D00070E0E0E0F0E0C10181709070892BE9F0EE
:1012E000E60CF71C081D191D9A01AB012A0D3B1DC8
:1012F0004C1D5D1D80E090E0A0E0B0E0E614F70436
:101300000805190520F481E090E0A0E0B0E0BA0102
:10131000A901480F591F6A1F7B1FAA0CBB1CCC1CBC
:10132000DD1C97FE08C081E090E0A0E0B0E0A82AB4
:10133000B92ACA2ADB2A3196E032F10549F0660C57
:10134000771C881C991C5694479437942794C3CFD4
:10135000FA85EA892B893C898B859C85280F391F62
:101360002E5F3F4F17C0CA0181709070892B61F0CA
:1013700016950795F794E79480E090E0A0E0B0E838
:10138000E82AF92A0A2B1B2B7695679557954795DE
:101390002F5F3F4F77FDE7CF0CC0440F551F661FEF
:1013A000771F17FD4160EE0CFF1C001F111F21501D
:1013B0003040403090E0590790E0690790E47907A9
:1013C00060F32B8F3C8FDB01CA018F779070A07088
:1013D000B07080349105A105B10561F447FD0AC0E4
:1013E000E114F1040105110529F0405C5F4F6F4FD6
:1013F0007F4F40781A8EFE1711F081E08A8F4D8F53
:101400005E8F6F8F78A383E0898FCE0149960E940B
:10141000650CA096E2E10C94373BA8E1B0E0E3E173
:10142000FAE00C94233B69837A838B839C832D831E
:101430003E834F835887B9E0EB2EF12CEC0EFD1E56
:10144000CE010196B7010E943A0D8E010F5E1F4F2B
:10145000CE010596B8010E943A0D2985223008F484
:101460007EC03989323010F4B8017CC08A859A89EF
:1014700089278A87243011F0223031F4231709F0AC
:101480006EC060E670E06EC0343039F41D861E8692
:101490001F86188A1C861B8604C0323021F484E023
:1014A0008987B7015FC02B853C858B899C89281B68
:1014B000390B3C872B87ED84FE840F851889AD8816
:1014C000BE88CF88D88CEA14FB040C051D0540F4B7
:1014D000EE0CFF1C001F111F215030403C872B8752
:1014E00020E030E040E050E080E090E0A0E0B0E4B8
:1014F00060E070E0EA14FB040C051D0540F0282BA9
:10150000392B4A2B5B2BEA18FB080C091D09B695F1
:10151000A79597958795EE0CFF1C001F111F6F5F15
:101520007F4F6F31710531F7DA01C9018F77907004
:10153000A070B07080349105A105B10561F427FD5C
:101540000AC0E114F1040105110529F0205C3F4FA8
:101550004F4F5F4F20782D873E874F87588BBE01B6
:10156000675F7F4FCB010E94650C6896EAE00C94A0
:101570003F3BA8E1B0E0EFEBFAE00C94273B698336
:101580007A838B839C832D833E834F83588789E0A6
:10159000E82EF12CEC0EFD1ECE010196B7010E9443
:1015A0003A0D8E010F5E1F4FCE010596B8010E94C5
:1015B0003A0D8985823040F08989823028F0C70150
:1015C000B8010E94B20D01C08FEF6896E6E00C945E
:1015D000433BA8E1B0E0EFEEFAE00C94273B6983CF
:1015E0007A838B839C832D833E834F83588789E046
:1015F000E82EF12CEC0EFD1ECE010196B7010E94E3
:101600003A0D8E010F5E1F4FCE010596B8010E9464
:101610003A0D8985823040F08989823028F0C701EF
:10162000B8010E94B20D01C08FEF6896E6E00C94FD
:10163000433BA8E1B0E0EFE1FBE00C94273B69837A
:101640007A838B839C832D833E834F83588789E0E5
:10165000E82EF12CEC0EFD1ECE010196B7010E9482
:101660003A0D8E010F5E1F4FCE010596B8010E9404
:101670003A0D8985823040F08989823028F0C7018F
:10168000B8010E94B20D01C081E06896E6E00C94BA
:10169000433BACE0B0E0EFE4FBE00C942B3B698310
:1016A0007A838B839C83CE010196BE016B5F7F4F53
:1016B0000E943A0D8D81823061F1823050F1843088
:1016C00021F48E81882351F12EC02F81388537FD7A
:1016D00020C06E812F3131051CF06623F9F023C044
:1016E0008EE190E0821B930B29853A854B855C85C2
:1016F00004C056954795379527958A95D2F7662366
:10170000B1F050954095309521953F4F4F4F5F4F29
:101710000EC020E030E040E050E009C02FEF3FEF86
:101720004FEF5FE704C020E030E040E050E8B9014F
:10173000CA012C96E2E00C94473BA8E0B0E0E3EA53
:10174000FBE00C94233B7B018C0161157105810545
:10175000910519F482E0898360C083E089838EE17A
:10176000C82ED12CDC82CB82ED82FE820F831887BB
:10177000C801B7010E94160CFC013197F7FF3BC06E
:10178000222733272E1B3F0B57016801022E04C06E
:10179000D694C794B794A7940A94D2F740E050E047
:1017A00060E070E081E090E0A0E0B0E004C0880F6D
:1017B000991FAA1FBB1F2A95D2F70197A109B1094A
:1017C0008E219F21A023B1230097A105B10521F00F
:1017D00041E050E060E070E04A295B296C297D29F6
:1017E0004D835E836F8378878EE190E08E1B9F0B25
:1017F0009C838B8312C0309781F00E2E04C0EE0CB8
:10180000FF1C001F111F0A94D2F7ED82FE820F8386
:101810001887CE1ADF0ADC82CB821A82CE010196AB
:101820000E94650C2896EAE00C943F3BEF92FF92F1
:101830000F931F937B018C0180E0E81680E0F8068F
:1018400081E0080780E0180788F48FEFE816F104BC
:101850000105110531F028F088E090E0A0E0B0E04B
:1018600017C080E090E0A0E0B0E012C080E0E81691
:1018700080E0F80680E0080781E0180728F088E19A
:1018800090E0A0E0B0E004C080E190E0A0E0B0E033
:1018900020E230E040E050E0281B390B4A0B5B0BA4
:1018A00004C016950795F794E7948A95D2F7F70147
:1018B000E859FF4F8081281B310941095109C901AD
:1018C0001F910F91FF90EF900895DF92EF92FF929A
:1018D0000F931F93FC01E480F58006811781D1806E
:1018E0008081823048F480E090E0A0E1B0E0E82A16
:1018F000F92A0A2B1B2BA5C0843009F49FC0823023
:1019000021F4EE24FF24870105C0E114F104010550
:10191000110519F4E0E0F0E096C0628173819FEF59
:10192000623879070CF05BC022E83FEF261B370BCB
:101930002A3131052CF020E030E040E050E02AC0B0
:10194000B801A701022E04C0769567955795479573
:101950000A94D2F781E090E0A0E0B0E004C0880FE4
:10196000991FAA1FBB1F2A95D2F70197A109B10998
:101970008E219F21A023B1230097A105B10521F05D
:1019800081E090E0A0E0B0E09A01AB01282B392B78
:101990004A2B5B2BDA01C9018F779070A070B07071
:1019A00080349105A105B10539F427FF09C0205CF9
:1019B0003F4F4F4F5F4F04C0215C3F4F4F4F5F4F32
:1019C000E0E0F0E02030A0E03A07A0E04A07A0E421
:1019D0005A0710F0E1E0F0E079018A0127C0603891
:1019E000710564F5FB01E158FF4FD801C7018F77FE
:1019F0009070A070B07080349105A105B10539F4E4
:101A0000E7FE0DC080E490E0A0E0B0E004C08FE30A
:101A100090E0A0E0B0E0E80EF91E0A1F1B1F17FFC0
:101A200005C016950795F794E794319687E01695CB
:101A30000795F794E7948A95D1F705C0EE24FF2423
:101A40008701EFEFF0E06E2F679566276795902F7F
:101A50009F77D794DD24D7948E2F8695492F462BD8
:101A6000582F5D29B701CA011F910F91FF90EF9088
:101A7000DF900895FC01DB01408151812281622FBA
:101A80006F7770E0221F2227221F9381892F880FF2
:101A9000822B282F30E0991F9927991F11969C932C
:101AA000119721153105A9F54115510561057105FC
:101AB00011F482E037C082E89FEF13969C938E93D7
:101AC00012979A01AB0167E0220F331F441F551F85
:101AD0006A95D1F783E08C930DC0220F331F441F0A
:101AE000551F12968D919C911397019713969C9375
:101AF0008E931297203080E0380780E0480780E41A
:101B0000580758F314962D933D934D935C93179774
:101B100008952F3F310579F441155105610571058F
:101B200019F484E08C93089564FF03C081E08C93E2
:101B300012C01C9210C02F57304013963C932E9326
:101B4000129783E08C9387E0440F551F661F771F21
:101B50008A95D1F7706414964D935D936D937C9341
:101B6000179708951F93DC01FB019C91923008F4B4
:101B700047C08081823008F443C0943051F41196FC
:101B80001C91843099F58181682F70E0611B710987
:101B90003FC0843021F0923031F48230B9F181813C
:101BA000882389F12DC011961C9111978230F1F094
:101BB00081811817D9F412962D913C911397828147
:101BC00093818217930794F028173907BCF0149675
:101BD0008D919D910D90BC91A02D248135814681E0
:101BE0005781281739074A075B0718F4112341F07A
:101BF0000AC082179307A407B50740F4112319F010
:101C000061E070E005C06FEF7FEF02C060E070E060
:101C1000CB011F910895DF93CF9300D00F92CDB7E2
:101C2000DEB79B838A8319820EC08981282F30E01A
:101C30008A819B81FC01E20FF31F80810E947B124D
:101C400089818F5F89838981282F30E08A819B81F8
:101C5000FC01E20FF31F8081882339F70F900F906A
:101C60000F90CF91DF910895DF93CF9300D0CDB740
:101C7000DEB79A83898381E59EE00E9465130E9406
:101C80000913E981FA8180810E94981289819A81E1
:101C900090939901809398010F900F90CF91DF91CD
:101CA0000895DF93CF93CDB7DEB72091980130919F
:101CB000990180916801882F90E0F901E80FF91FE0
:101CC00080818823A1F02091980130919901809121
:101CD0006801882F90E0F901E80FF91F80810E94C8
:101CE0009812809168018F5F8093680103C081E042
:101CF00080936801CF91DF9108950F931F93DF9335
:101D0000CF9300D00F92CDB7DEB79B838A83198221
:101D10008981282F30E08A819B818C01020F131F5B
:101D20000E94A612F80180830FC089818F5F89838A
:101D30008981282F30E08A819B818C01020F131F3B
:101D40000E94A612F80180838981282F30E08A81C1
:101D50009B81FC01E20FF31F80818D3031F7898177
:101D6000282F30E08A819B81FC01E20FF31F108253
:101D70000F900F900F90CF91DF911F910F910895C9
:101D8000DF93CF9300D0CDB7DEB79A83898388EDF8
:101D90009EE00E9441130E94ED1289819A819093E6
:101DA0009B0180939A010F900F90CF91DF9108953E
:101DB0000F931F93DF93CF93CDB7DEB720919A0196
:101DC00030919B0180919C01882F90E08901080F40
:101DD000191F0E94E312F801808380919C018F5F9C
:101DE00080939C01CF91DF911F910F910895DF9314
:101DF000CF9300D000D00F92CDB7DEB79D838C83F8
:101E00001B821A8219820FC08B81282F30E08C81AF
:101E10009D81FC01E20FF31F90818A81890F8A83E3
:101E20008B818F5F8B838B81282F30E08C819D810C
:101E3000FC01E20FF31F8081882331F78B810E9420
:101E40007B120BC08981282F30E08C819D81FC01A1
:101E5000E20FF31F80810E947B128981282F30E0DE
:101E60008C819D81FC01E20FF31F8081882351F753
:101E70008A810E947B128A81882F90E0892F990F96
:101E8000990B0E947B120F900F900F900F900F9064
:101E9000CF91DF9108950F931F93DF93CF93CDB729
:101EA000DEB72B970FB6F894DEBF0FBECDBF9A8773
:101EB00089870E94A6128F831E821D821C821B822C
:101EC000188620C08885282F30E089859A858C0166
:101ED000020F131F0E94A612F80180838885282F05
:101EE00030E089859A85FC01E20FF31F8081282F5D
:101EF00030E08B819C81820F931F9C838B8388852C
:101F00008F5F888798858F819817E0F20E94A612CC
:101F10008A830E94A61289838A81282F30E08981D2
:101F2000882F90E0982F8827822B932B9C838B837C
:101F30002B813C818D819E812817390719F4F1E0AE
:101F4000FB8701C01B868B852B960FB6F894DEBFEE
:101F50000FBECDBFCF91DF911F910F9108950F93C9
:101F60001F93DF93CF93CDB7DEB763970FB6F89487
:101F7000DEBF0FBECDBF9A8789877C876B875E8760
:101F80004D87388B2F871A8B098B18861F821E82EC
:101F90001D829DC08885282F30E089859A85FC01A7
:101FA000E20FF31F80818C3221F48F818F5F8F834A
:101FB0008BC08F818823B1F48E81282F30E08B85F0
:101FC0009C85DC01A20FB31F8885282F30E089850E
:101FD0009A85FC01E20FF31F80818C938E818F5FC5
:101FE0008E8372C08F818130B1F58885282F30E0D3
:101FF00089859A85FC01E20FF31F8081803308F404
:1020000063C08885282F30E089859A85FC01E20F1E
:10201000F31F80818A3308F057C08B819C819C011B
:10202000220F331FC901880F991F880F991FA9011B
:10203000480F591F8885282F30E089859A85FC0133
:10204000E20FF31F8081882F90E0840F951FC097C7
:102050009C838B8339C08F818230B1F48D81282F8E
:1020600030E08D859E85DC01A20FB31F8885282F67
:1020700030E089859A85FC01E20FF31F80818C9303
:102080008D818F5F8D8320C08F818330E9F48981BA
:102090009A819C01220F331FC901880F991F880F55
:1020A000991FA901480F591F8885282F30E089857D
:1020B0009A85FC01E20FF31F8081882F90E0840F46
:1020C000951FC0979A83898388858F5F88878885C5
:1020D000282F30E089859A85FC01E20FF31F80816B
:1020E000882309F057CF8E81282F30E08B859C857F
:1020F000FC01E20FF31F10828D81282F30E08D85C7
:102100009E85FC01E20FF31F10828B81EF85F88919
:1021100080838981E989FA8980838F81833011F0F6
:102120001B8A02C081E08B8B8B8963960FB6F89473
:10213000DEBF0FBECDBFCF91DF911F910F910895EC
:10214000DF93CF93CDB7DEB785E291E10E94261DE4
:1021500080E062E040E00E941C1CCF91DF91089576
:10216000DF93CF930F92CDB7DEB7198212C089816A
:10217000282F30E0C901880F991F820F931F880F05
:10218000991FFC01E753FE4F1182108289818F5FF6
:1021900089838981833058F30F90CF91DF9108951F
:1021A000DF93CF93CDB7DEB727970FB6F894DEBF96
:1021B0000FBECDBF89837B836A835D834C833F835E
:1021C0002E8389818330C0F58E819F810097A1F194
:1021D0008981282F30E0C901880F991F820F931F32
:1021E000880F991FFC01EB53FE4F8C819D819183D9
:1021F00080838981282F30E0C901880F991F820FC1
:10220000931F0196880F991FFC01EB53FE4F8A81A3
:102210009B81918380838981282F30E0C901880FB9
:10222000991F820F931F880F991FFC01E753FE4FE0
:102230008E819F819183808327960FB6F894DEBFAD
:102240000FBECDBFCF91DF910895DF93CF930F9253
:10225000CDB7DEB7198278C08981282F30E0C90157
:10226000880F991F820F931F880F991FFC01EB5352
:10227000FE4F80819181009709F045C08981282F08
:1022800030E0C901880F991F820F931F880F991F93
:10229000FC01E753FE4F80819181009789F089818D
:1022A000282F30E0C901880F991F820F931F880FD4
:1022B000991FFC01E753FE4F0190F081E02D099535
:1022C0008981482F50E08981282F30E0C901880F8B
:1022D000991F820F931F0196880F991FFC01EB53E2
:1022E000FE4F808191819C0121503040CA01880FAE
:1022F000991F840F951F880F991FFC01EB53FE4F08
:10230000318320831EC08981282F30E0C901880FC6
:10231000991F820F931F880F991FFC01EB53FE4FEB
:1023200080819181AC0141505040C901880F991FB3
:10233000820F931F880F991FFC01EB53FE4F5183AF
:10234000408389818F5F89838981833008F484CFBA
:102350000F90CF91DF910895DF93CF93CDB7DEB784
:10236000A1E4B0E0E1E4F0E08081887F8C93A1E417
:10237000B0E0E1E4F0E0808187608C93A1E4B0E01C
:10238000E1E4F0E0808188608C93A1E4B0E0E1E4D6
:10239000F0E080818F7E8C93CF91DF910895DF9361
:1023A000CF93CDB7DEB7A1E4B0E0E1E4F0E0808107
:1023B000877F8C93A1E4B0E0E1E4F0E0808180616C
:1023C0008C93CF91DF910895DF93CF9300D00F923C
:1023D000CDB7DEB71B8283E390E09A838983E9E27D
:1023E000F0E089818083E0E4F0E089819A81892F9F
:1023F00099278083ABE2B0E0EBE2F0E080818D7F53
:102400008C938B8180688B83AAE2B0E0EAE2F0E0F3
:1024100080818B7F8C938B8184608B838B818260A6
:102420008B83AAE2B0E0EAE2F0E0808180618C93E5
:10243000AAE2B0E0EAE2F0E0808188608C938B81D0
:102440008F7B8B838B818F7C8B838B81877F8B832F
:102450008B818E7F8B83E0E4F0E08B8180830F9013
:102460000F900F90CF91DF910895DF93CF9300D01D
:102470000F92CDB7DEB78B831A82198205C089818E
:102480009A8101969A838983EBE2F0E08081882F1C
:1024900090E09C012F7DEBE2F0E08081882F90E0BE
:1024A0002817390761F31A821982ECE2F0E08B8178
:1024B000808305C089819A8101969A838983EBE2A2
:1024C000F0E08081882F90E09C012F7DEBE2F0E02E
:1024D0008081882F90E02817390761F3ABE2B0E0E4
:1024E000EBE2F0E0808180648C930F900F900F906E
:1024F000CF91DF910895DF93CF930F92CDB7DEB7E1
:102500008983EBE2F0E08081882F90E09C012F7DB1
:10251000EBE2F0E08081882F90E02817390789F3FB
:10252000ECE2F0E0898180830F90CF91DF910895F4
:10253000DF93CF930F92CDB7DEB78983ECE2F0E063
:10254000898180830F90CF91DF910895DF93CF939E
:10255000CDB7DEB7EBE2F0E08081882F90E09C0100
:102560002F77EBE2F0E08081882F90E02817390781
:1025700089F3ECE2F0E08081CF91DF910895DF9361
:10258000CF9300D0CDB7DEB71A82198205C08981FA
:102590009A8101969A838983EBE2F0E08081882F0B
:1025A00090E09C012F77EBE2F0E08081882F90E0B3
:1025B0002817390761F3ECE2F0E080810F900F906B
:1025C000CF91DF910895DF93CF93CDB7DEB7ECE2E3
:1025D000F0E08081CF91DF910895DF93CF93CDB765
:1025E000DEB7AAE2B0E0EAE2F0E0808180688C9396
:1025F000CF91DF910895DF93CF93CDB7DEB7AAE2F5
:10260000B0E0EAE2F0E080818F778C93CF91DF91A8
:102610000895DF93CF93CDB7DEB7AAE2B0E0EAE248
:10262000F0E0808180648C93CF91DF910895DF93F7
:10263000CF93CDB7DEB7AAE2B0E0EAE2F0E0808166
:102640008F7B8C93CF91DF910895DF93CF93CDB79C
:10265000DEB7AAE2B0E0EAE2F0E0808180628C932B
:10266000CF91DF910895DF93CF93CDB7DEB7AAE284
:10267000B0E0EAE2F0E080818F7D8C93CF91DF9132
:102680000895DF93CF9300D0CDB7DEB79A838983C7
:1026900089819A8190939E0180939D010F900F9064
:1026A000CF91DF910895DF93CF9300D0CDB7DEB700
:1026B0009A83898389819A819093A00180939F0155
:1026C0000F900F90CF91DF910895DF93CF9300D0BB
:1026D000CDB7DEB79A83898389819A819093A201CD
:1026E0008093A1010F900F90CF91DF9108951F92D9
:1026F0000F920FB60F9211242F933F934F935F9336
:102700006F937F938F939F93AF93BF93EF93FF93B9
:10271000DF93CF93CDB7DEB780919D0190919E015D
:10272000009729F0E0919D01F0919E010995CF91CC
:10273000DF91FF91EF91BF91AF919F918F917F9129
:102740006F915F914F913F912F910F900FBE0F901E
:102750001F9018951F920F920FB60F9211242F936E
:102760003F934F935F936F937F938F939F93AF9319
:10277000BF93EF93FF93DF93CF93CDB7DEB78091F5
:102780009F019091A001009729F0E0919F01F091A5
:10279000A0010995CF91DF91FF91EF91BF91AF918A
:1027A0009F918F917F916F915F914F913F912F9169
:1027B0000F900FBE0F901F9018951F920F920FB69B
:1027C0000F9211242F933F934F935F936F937F93B7
:1027D0008F939F93AF93BF93EF93FF93DF93CF9329
:1027E000CDB7DEB78091A1019091A201009729F0A9
:1027F000E091A101F091A2010995CF91DF91FF91A4
:10280000EF91BF91AF919F918F917F916F915F9168
:102810004F913F912F910F900FBE0F901F901895E1
:10282000DF93CF930F92CDB7DEB78983A6E5B0E0F3
:10283000E6E5F0E0808180648C93E0E2F0E082E005
:102840008083E1E2F0E01082E2E2F0E08981880F2B
:102850008083A6E5B0E0E6E5F0E0808184608C93BB
:102860000F90CF91DF910895DF93CF930F92CDB763
:10287000DEB7E6E5F0E084EA8083E6E5F0E080811B
:10288000882F90E09C012F77E6E5F0E08081882F8B
:1028900090E02817390789F3E1E2F0E08081882F82
:1028A00090E0887F90708830910519F081E08983ED
:1028B00001C0198289810F90CF91DF910895DF9334
:1028C000CF9300D0CDB7DEB78983E3E2F0E0898112
:1028D000880F8083E6E5F0E084E88083E6E5F0E0B9
:1028E0008081882F90E09C012F77E6E5F0E08081E1
:1028F000882F90E02817390789F3E1E2F0E0808122
:10290000882F90E0887F90708831910519F082E0DF
:102910008A8301C01A828A810F900F90CF91DF9134
:102920000895DF93CF9300D0CDB7DEB78983E3E27C
:10293000F0E089818083E6E5F0E084E88083E6E5E5
:10294000F0E08081882F90E09C012F77E6E5F0E0B1
:102950008081882F90E02817390789F3E1E2F0E0C1
:102960008081882F90E0887F90708832910519F0DF
:1029700083E08A8301C01A828A810F900F90CF91E1
:10298000DF910895DF93CF930F92CDB7DEB7E6E5E1
:10299000F0E084EA8083E6E5F0E08081882F90E033
:1029A0009C012F77E6E5F0E08081882F90E02817E2
:1029B000390789F3E1E2F0E08081882F90E0887F99
:1029C00090708031910519F085E0898301C01982EA
:1029D00089810F90CF91DF910895DF93CF9300D03D
:1029E000CDB7DEB78983E3E2F0E08981882F90E0FC
:1029F000880F991F81608083E6E5F0E084E880839A
:102A0000E6E5F0E08081882F90E09C012F77E6E5F5
:102A1000F0E08081882F90E02817390789F3E1E200
:102A2000F0E08081882F90E0887F9070803491055D
:102A300019F086E08A8301C01A828A810F900F9074
:102A4000CF91DF910895DF93CF9300D00F92CDB750
:102A5000DEB789837B836A83E6E5F0E08981882F8E
:102A600090E000249695879507949695879507940E
:102A7000982F802D84688083E6E5F0E08081882FA0
:102A800090E09C012F77E6E5F0E08081882F90E0D0
:102A90002817390789F3E3E2F0E08081EA81FB81BE
:102AA00080830F900F900F90CF91DF910895DF9367
:102AB000CF93CDB7DEB7E6E5F0E084E98083CF9130
:102AC000DF910895DF93CF9300D0CDB7DEB79A831F
:102AD000898389819A819093A4018093A3010F90A7
:102AE0000F90CF91DF910895DF93CF93CDB7DEB7ED
:102AF000A6E5B0E0E6E5F0E0808181608C93CF91BF
:102B0000DF910895DF93CF93CDB7DEB7A6E5B0E0B0
:102B1000E6E5F0E080818E7F8C93CF91DF91089580
:102B20001F920F920FB60F9211242F933F934F9342
:102B30005F936F937F938F939F93AF93BF93EF9325
:102B4000FF93DF93CF93CDB7DEB78091A301909130
:102B5000A401009729F0E091A301F091A401099547
:102B6000CF91DF91FF91EF91BF91AF919F918F91A5
:102B70007F916F915F914F913F912F910F900FBE79
:102B80000F901F901895DF93CF9300D000D00F9235
:102B9000CDB7DEB789836A834B838981282F30E0E4
:102BA0003D832C838C819D818130910521F12C8185
:102BB0003D81223031052CF48C819D81009761F09C
:102BC00046C02C813D812230310521F18C819D81CF
:102BD0008330910571F13BC0A5E4B0E0E5E4F0E09D
:102BE00080818F7B8C93A5E4B0E0E5E4F0E0808108
:102BF000877F8C932CC0A5E4B0E0E5E4F0E0808111
:102C000080648C93A5E4B0E0E5E4F0E08081877F08
:102C10008C931DC0A5E4B0E0E5E4F0E080818F7BFB
:102C20008C93A5E4B0E0E5E4F0E0808188608C93CB
:102C30000EC0A5E4B0E0E5E4F0E0808180648C9310
:102C4000A5E4B0E0E5E4F0E0808188608C93A5E441
:102C5000B0E0E5E4F0E08081887C8C93A5E4B0E00E
:102C6000E5E4F0E08081282F8A81882F90E082952A
:102C70009295907F9827807F9827982F8B81892B1A
:102C8000822B8C930F900F900F900F900F90CF91FD
:102C9000DF910895DF93CF930F92CDB7DEB789838D
:102CA000E4E4F0E0898180830F90CF91DF91089573
:102CB000DF93CF930F92CDB7DEB78983E3E4F0E0E3
:102CC000898180830F90CF91DF910895DF93CF9317
:102CD000CDB7DEB7A9E5B0E0E9E5F0E0808180643A
:102CE0008C93CF91DF910895DF93CF93CDB7DEB76B
:102CF000A9E5B0E0E9E5F0E080818F7B8C93CF918E
:102D0000DF910895DF93CF93CDB7DEB7A9E5B0E0AB
:102D1000E9E5F0E0808180688C93CF91DF910895A0
:102D2000DF93CF93CDB7DEB7A9E5B0E0E9E5F0E0FA
:102D300080818F778C93CF91DF910895DF93CF932C
:102D400000D0CDB7DEB79A83898389819A81909329
:102D5000A6018093A5010F900F90CF91DF91089568
:102D6000DF93CF9300D0CDB7DEB79A838983898173
:102D70009A819093A8018093A7010F900F90CF9113
:102D8000DF9108951F920F920FB60F9211242F9387
:102D90003F934F935F936F937F938F939F93AF93E3
:102DA000BF93EF93FF93DF93CF93CDB7DEB78091BF
:102DB000A5019091A601009729F0E091A501F0915D
:102DC000A6010995CF91DF91FF91EF91BF91AF914E
:102DD0009F918F917F916F915F914F913F912F9133
:102DE0000F900FBE0F901F9018951F920F920FB665
:102DF0000F9211242F933F934F935F936F937F9381
:102E00008F939F93AF93BF93EF93FF93DF93CF93F2
:102E1000CDB7DEB78091A7019091A801009729F066
:102E2000E091A701F091A8010995CF91DF91FF9161
:102E3000EF91BF91AF919F918F917F916F915F9132
:102E40004F913F912F910F900FBE0F901F901895AB
:102E5000DF93CF9300D000D000D0CDB7DEB7898309
:102E60006A834B832C838981282F30E03E832D8316
:102E70008D819E818730910509F41EC12D813E818F
:102E8000283031054CF58D819E818330910509F400
:102E9000A1C02D813E81243031058CF48D819E812D
:102EA0008130910509F45EC02D813E8122303105CB
:102EB0000CF074C08D819E810097C9F1E2C12D8113
:102EC0003E812530310509F4BDC08D819E8186305B
:102ED00091050CF0D4C09AC02D813E812B30310574
:102EE00009F45DC18D819E818C3091056CF42D813A
:102EF0003E812930310509F418C18D819E818A30C7
:102F000091050CF02FC1F5C02D813E812D3031058A
:102F100009F47EC18D819E818D3091050CF45CC1D8
:102F20002D813E812E30310509F48FC1AAC1AFE455
:102F3000B0E0EFE4F0E080818C7F8C93AFE4B0E010
:102F4000EFE4F0E080818C93AEE4B0E0EEE4F0E0FA
:102F50008081877E8C93AEE4B0E0EEE4F0E0808187
:102F60008C938FC1AFE4B0E0EFE4F0E080818C7F20
:102F70008C93AFE4B0E0EFE4F0E0808181608C936B
:102F8000AEE4B0E0EEE4F0E08081877E8C93AEE4C6
:102F9000B0E0EEE4F0E080818C9373C1AFE4B0E088
:102FA000EFE4F0E080818C7F8C93AFE4B0E0EFE45D
:102FB000F0E0808182608C93AEE4B0E0EEE4F0E07B
:102FC0008081877E8C93AEE4B0E0EEE4F0E0808117
:102FD0008C9357C1AFE4B0E0EFE4F0E080818C7FE8
:102FE0008C93AFE4B0E0EFE4F0E0808183608C93F9
:102FF000AEE4B0E0EEE4F0E08081877E8C93AEE456
:10300000B0E0EEE4F0E080818C933BC1AFE4B0E04F
:10301000EFE4F0E080818C7F8C93AFE4B0E0EFE4EC
:10302000F0E080818C93AEE4B0E0EEE4F0E08081EB
:10303000877E8C93AEE4B0E0EEE4F0E080818860BF
:103040008C931FC1AFE4B0E0EFE4F0E080818C7FAF
:103050008C93AFE4B0E0EFE4F0E0808181608C938A
:10306000AEE4B0E0EEE4F0E08081877E8C93AEE4E5
:10307000B0E0EEE4F0E0808188608C9302C1AFE4C0
:10308000B0E0EFE4F0E080818C7F8C93AFE4B0E0BF
:10309000EFE4F0E0808182608C93AEE4B0E0EEE497
:1030A000F0E08081877E8C93AEE4B0E0EEE4F0E067
:1030B000808188608C93E5C0AFE4B0E0EFE4F0E09D
:1030C00080818C7F8C93AFE4B0E0EFE4F0E080810E
:1030D00083608C93AEE4B0E0EEE4F0E08081877E24
:1030E0008C93AEE4B0E0EEE4F0E0808188608C93F5
:1030F000C8C0AFE4B0E0EFE4F0E080818C7F8C9357
:10310000AFE4B0E0EFE4F0E080818C93AEE4B0E0B7
:10311000EEE4F0E08081877E8C93AEE4B0E0EEE4F4
:10312000F0E0808180618C93ACC0AFE4B0E0EFE46C
:10313000F0E080818C7F8C93AFE4B0E0EFE4F0E0CE
:10314000808181608C93AEE4B0E0EEE4F0E08081B9
:10315000877E8C93AEE4B0E0EEE4F0E080818061A5
:103160008C938FC0AFE4B0E0EFE4F0E080818C7F1F
:103170008C93AFE4B0E0EFE4F0E0808182608C9368
:10318000AEE4B0E0EEE4F0E08081877E8C93AEE4C4
:10319000B0E0EEE4F0E0808180618C9372C0AFE437
:1031A000B0E0EFE4F0E080818C7F8C93AFE4B0E09E
:1031B000EFE4F0E0808183608C93AEE4B0E0EEE475
:1031C000F0E08081877E8C93AEE4B0E0EEE4F0E046
:1031D000808180618C9355C0AFE4B0E0EFE4F0E013
:1031E00080818C7F8C93AFE4B0E0EFE4F0E08081ED
:1031F0008C93AEE4B0E0EEE4F0E08081877E8C93C7
:10320000AEE4B0E0EEE4F0E0808188618C9339C0F8
:10321000AFE4B0E0EFE4F0E080818C7F8C93AFE42A
:10322000B0E0EFE4F0E0808182608C93AEE4B0E047
:10323000EEE4F0E08081877E8C93AEE4B0E0EEE4D3
:10324000F0E0808188618C931CC0AFE4B0E0EFE4D3
:10325000F0E080818C7F8C93AFE4B0E0EFE4F0E0AD
:10326000808183608C93AEE4B0E0EEE4F0E0808196
:10327000877E8C93AEE4B0E0EEE4F0E0808188617C
:103280008C93AFE4B0E0EFE4F0E080818F708C933A
:10329000AFE4B0E0EFE4F0E08081382F8B81882F3D
:1032A00090E00024969587950794969587950794C6
:1032B000982F802D282F8C81882F90E082959295D1
:1032C000907F9827807F9827822B832B8C93AEE466
:1032D000B0E0EEE4F0E08081887F8C93AEE4B0E073
:1032E000EEE4F0E090818A81892B8C9326960FB6CC
:1032F000F894DEBF0FBECDBFCF91DF910895DF936D
:10330000CF930F92CDB7DEB789838981882341F4AB
:10331000AEE4B0E0EEE4F0E0808180648C930AC01B
:103320008981813039F4AEE4B0E0EEE4F0E08081F0
:103330008F7B8C930F90CF91DF910895DF93CF9384
:10334000CDB7DEB728970FB6F894DEBF0FBECDBF5E
:103350009E838D8378876F83ECE4F0E01182108286
:1033600084EE9BE10E94D01A80E00E947F190E94A7
:10337000181A1092B1018091B1018330E0F380916D
:10338000B301282F30E08091B201882F90E0A9018D
:10339000481B590BCA019C838B838091B401282F51
:1033A00030E08091B301882F90E0A901481B590BB0
:1033B000CA019A8389832B813C8184E690E0289F0F
:1033C000A001299F500D389F500D11242B813C8165
:1033D00089819A81280F391FCA01B9010E94E53AF3
:1033E000CB01EF81F885808329813A818B819C8193
:1033F000280F391F80E492E4B9010E94E53ACB011D
:10340000ED81FE819183808328960FB6F894DEBF0C
:103410000FBECDBFCF91DF910895DF93CF93CDB78E
:10342000DEB7E6E4F0E080819181CF91DF910895ED
:10343000DF93CF93CDB7DEB7A9E5B0E0E9E5F0E0E3
:10344000808180628C93CF91DF910895DF93CF9339
:10345000CDB7DEB7A9E5B0E0E9E5F0E080818F7D8A
:103460008C93CF91DF910895DF93CF93CDB7DEB7E3
:10347000A9E5B0E0E9E5F0E0808180618C93CF912F
:10348000DF910895DF93CF93CDB7DEB7A9E5B0E024
:10349000E9E5F0E080818F7E8C93CF91DF910895F4
:1034A000DF93CF93CDB7DEB7A9E5B0E0E9E5F0E073
:1034B000808188608C93CF91DF910895DF93CF93C3
:1034C000CDB7DEB7A9E5B0E0E9E5F0E08081877F20
:1034D0008C93CF91DF910895DF93CF93CDB7DEB773
:1034E000A9E5B0E0E9E5F0E0808184608C93CF91BC
:1034F000DF910895DF93CF93CDB7DEB7A9E5B0E0B4
:10350000E9E5F0E080818B7F8C93CF91DF91089586
:10351000DF93CF9300D0CDB7DEB79A838983E6E4FB
:10352000F0E089819A81918380830F900F90CF91F1
:10353000DF910895DF93CF9300D0CDB7DEB79A83A4
:103540008983EAE4F0E089819A81918380830F90F6
:103550000F90CF91DF910895DF93CF9300D0CDB737
:10356000DEB79A838983E8E4F0E089819A819183C8
:1035700080830F900F90CF91DF910895DF93CF93C9
:1035800000D0CDB7DEB79A838983ECE4F0E089817F
:103590009A81918380830F900F90CF91DF9108954E
:1035A000DF93CF9300D0CDB7DEB79A83898389812B
:1035B0009A819093AA018093A9010F900F90CF91C7
:1035C000DF910895DF93CF9300D0CDB7DEB79A8314
:1035D000898389819A819093AC018093AB010F908C
:1035E0000F90CF91DF910895DF93CF9300D0CDB7A7
:1035F000DEB79A83898389819A819093AE01809303
:10360000AD010F900F90CF91DF910895DF93CF938D
:1036100000D0CDB7DEB79A83898389819A81909350
:10362000B0018093AF010F900F90CF91DF9108957B
:103630001F920F920FB60F9211242F933F934F9327
:103640005F936F937F938F939F93AF93BF93EF930A
:10365000FF93DF93CF93CDB7DEB78091A90190910F
:10366000AA01009729F0E091A901F091AA0109951A
:10367000CF91DF91FF91EF91BF91AF919F918F918A
:103680007F916F915F914F913F912F910F900FBE5E
:103690000F901F9018951F920F920FB60F92112442
:1036A0002F933F934F935F936F937F938F939F934A
:1036B000AF93BF93EF93FF93DF93CF93CDB7DEB775
:1036C0008091AB019091AC01009729F0E091AB01A2
:1036D000F091AC010995CF91DF91FF91EF91BF91EE
:1036E000AF919F918F917F916F915F914F913F919A
:1036F0002F910F900FBE0F901F9018951F920F9251
:103700000FB60F9211242F933F934F935F936F93B4
:103710007F938F939F93AF93BF93EF93FF93DF9329
:10372000CF93CDB7DEB78091AD019091AE010097F8
:1037300029F0E091AD01F091AE010995CF91DF91B3
:10374000FF91EF91BF91AF919F918F917F916F9179
:103750005F914F913F912F910F900FBE0F901F904F
:1037600018951F920F920FB60F9211242F933F932B
:103770004F935F936F937F938F939F93AF93BF9379
:10378000EF93FF93DF93CF93CDB7DEB78091AF0177
:103790009091B001009729F0E091AF01F091B00154
:1037A0000995CF91DF91FF91EF91BF91AF919F91DB
:1037B0008F917F916F915F914F913F912F910F90DA
:1037C0000FBE0F901F901895DF93CF93CDB7DEB744
:1037D0008091B101882369F4E6E4F0E08081918171
:1037E0008093B20181E00E947F1981E08093B10152
:1037F00020C08091B101813069F4E6E4F0E080817D
:1038000091818093B30180E00E947F1982E08093D0
:10381000B1010FC08091B101823059F4E6E4F0E0CB
:10382000808191818093B4010E94261A83E0809365
:10383000B101CF91DF910895DF93CF9300D000D0F5
:103840000F92CDB7DEB789836A834B838981282F96
:1038500030E03D832C838C819D818130910561F125
:103860002C813D81223031052CF48C819D81009783
:1038700069F063C02C813D812230310599F18C8142
:103880009D818330910509F443C057C0A3E5B0E0A2
:10389000E3E5F0E0808180688C93A3E5B0E0E3E5A8
:1038A000F0E080818F7B8C93A3E5B0E0E3E5F0E06E
:1038B0008081877F8C9341C0A3E5B0E0E3E5F0E031
:1038C00080818F778C93A3E5B0E0E3E5F0E0808121
:1038D00080648C93A3E5B0E0E3E5F0E08081877F2E
:1038E0008C932BC0A3E5B0E0E3E5F0E08081806835
:1038F0008C93A3E5B0E0E3E5F0E080818F7B8C93CF
:10390000A3E5B0E0E3E5F0E0808188608C9315C02A
:10391000A3E5B0E0E3E5F0E080818F778C93A3E549
:10392000B0E0E3E5F0E0808180648C93A3E5B0E053
:10393000E3E5F0E0808188608C93A3E5B0E0E3E507
:10394000F0E08081887C8C93A3E5B0E0E3E5F0E0D3
:103950008081282F8B81882F90E082959295907F8F
:103960009827807F9827982F8A81892B822B8C9388
:103970000F900F900F900F900F90CF91DF910895BF
:10398000DF93CF93CDB7DEB7A9E5B0E0E9E5F0E08E
:10399000808181608C93CF91DF910895DF93CF93E5
:1039A000CDB7DEB7A9E5B0E0E9E5F0E080818E7F34
:1039B0008C93CF91DF910895DF93CF93CDB7DEB78E
:1039C000A9E5B0E0E9E5F0E0808182608C93CF91D9
:1039D000DF910895DF93CF93CDB7DEB7A9E5B0E0CF
:1039E000E9E5F0E080818D7F8C93CF91DF910895A0
:1039F000DF93CF930F92CDB7DEB78983E2E5F0E096
:103A0000898180830F90CF91DF910895DF93CF93C9
:103A10000F92CDB7DEB78983ECE5F0E08981808332
:103A20000F90CF91DF910895DF93CF9300D0CDB762
:103A3000DEB79A83898389819A819093B6018093B6
:103A4000B5010F900F90CF91DF910895DF93CF9341
:103A500000D0CDB7DEB79A83898389819A8190930C
:103A6000B8018093B7010F900F90CF91DF91089527
:103A70001F920F920FB60F9211242F933F934F93E3
:103A80005F936F937F938F939F93AF93BF93EF93C6
:103A9000FF93DF93CF93CDB7DEB78091B5019091BF
:103AA000B601009729F0E091B501F091B6010995B2
:103AB000CF91DF91FF91EF91BF91AF919F918F9146
:103AC0007F916F915F914F913F912F910F900FBE1A
:103AD0000F901F9018951F920F920FB60F921124FE
:103AE0002F933F934F935F936F937F938F939F9306
:103AF000AF93BF93EF93FF93DF93CF93CDB7DEB731
:103B00008091B7019091B801009729F0E091B70139
:103B1000F091B8010995CF91DF91FF91EF91BF919D
:103B2000AF919F918F917F916F915F914F913F9155
:103B30002F910F900FBE0F901F901895DF93CF938A
:103B4000CDB7DEB7ADE2B0E0EDE2F0E080818061BC
:103B50008C93ADE2B0E0EDE2F0E0808184608C9384
:103B6000ADE2B0E0EDE2F0E08081877F8C93ADE2E2
:103B7000B0E0EDE2F0E0808180628C93ADE2B0E0F5
:103B8000EDE2F0E0808181608C93ADE2B0E0EDE2A7
:103B9000F0E080818D7F8C93AEE2B0E0EEE2F0E069
:103BA00080818E7F8C93ADE2B0E0EDE2F0E0808129
:103BB00080648C93CF91DF910895DF93CF930F9220
:103BC000CDB7DEB78983EFE2F0E089818083EEE252
:103BD000F0E08081882F90E09C012F77EEE2F0E00A
:103BE0008081882F90E02817390789F3EFE2F0E011
:103BF00080810F90CF91DF910895DF93CF93CDB760
:103C0000DEB7ADE2B0E0EDE2F0E0808180688C9359
:103C1000CF91DF910895DF93CF93CDB7DEB7ADE2BB
:103C2000B0E0EDE2F0E080818F778C93CF91DF916F
:103C30000895DF93CF9300D0CDB7DEB79A83898301
:103C400089819A819093BA018093B9010F900F9066
:103C5000CF91DF9108951F920F920FB60F9211240A
:103C60002F933F934F935F936F937F938F939F9384
:103C7000AF93BF93EF93FF93DF93CF93CDB7DEB7AF
:103C80008091B9019091BA01009729F0E091B901B2
:103C9000F091BA010995CF91DF91FF91EF91BF911A
:103CA000AF919F918F917F916F915F914F913F91D4
:103CB0002F910F900FBE0F901F901895DF93CF9309
:103CC00000D000D000D0CDB7DEB789836A838A8167
:103CD000843008F05AC08981282F30E03E832D833C
:103CE0008D819E8181309105D1F02D813E812230E0
:103CF000310561F18D819E81009709F046C0A5E5EF
:103D0000B0E0E5E5F0E080818C7F8C93A5E5B0E044
:103D1000E5E5F0E090818A81892B8C9336C0A5E59A
:103D2000B0E0E5E5F0E08081837F8C93A5E5B0E02D
:103D3000E5E5F0E08081282F8A81882F90E0880FC8
:103D4000991F880F991F822B8C931FC08A81282F5F
:103D500030E03C832B838B819C818230910531F054
:103D60002B813C812330310549F00FC0A4E5B0E040
:103D7000E4E5F0E080818F7B8C9307C0A4E5B0E0A0
:103D8000E4E5F0E0808180648C9326960FB6F89489
:103D9000DEBF0FBECDBFCF91DF910895DF93CF93EC
:103DA00000D00F92CDB7DEB789838981282F30E00C
:103DB0003B832A838A819B818130910589F02A8106
:103DC0003B8122303105A1F08A819B810097B9F4B3
:103DD000ABE5B0E0EBE5F0E0808180648C930FC050
:103DE000ABE5B0E0EBE5F0E0808180688C9307C044
:103DF000ABE5B0E0EBE5F0E0808180628C930F9062
:103E00000F900F90CF91DF910895DF93CF9300D063
:103E10000F92CDB7DEB789838981282F30E03B83AD
:103E20002A838A819B818130910589F02A813B8197
:103E300022303105A1F08A819B810097B9F4ABE56E
:103E4000B0E0EBE5F0E080818F7B8C930FC0ABE5B9
:103E5000B0E0EBE5F0E080818F778C9307C0ABE5B5
:103E6000B0E0EBE5F0E080818F7D8C930F900F90B8
:103E70000F90CF91DF910895DF93CF9300D00F92F1
:103E8000CDB7DEB789838981282F30E03B832A8331
:103E90008A819B818130910589F02A813B81223082
:103EA0003105A1F08A819B810097B9F4AAE5B0E0C1
:103EB000EAE5F0E0808180648C930FC0AAE5B0E071
:103EC000EAE5F0E0808180688C9307C0AAE5B0E065
:103ED000EAE5F0E0808180628C930F900F900F9064
:103EE000CF91DF910895DF93CF9300D000D00F9250
:103EF000CDB7DEB789837B836A838A819B810097F4
:103F000039F18981282F30E03D832C838C819D817C
:103F10008130910581F02C813D812230310591F075
:103F20008C819D810097A1F48A819B819093BC0133
:103F30008093BB010DC08A819B819093BE018093C9
:103F4000BD0106C08A819B819093C0018093BF010F
:103F50000F900F900F900F900F90CF91DF910895D9
:103F60001F920F920FB60F9211242F933F934F93EE
:103F70005F936F937F938F939F93AF93BF93EF93D1
:103F8000FF93DF93CF93CDB7DEB78091BB019091C4
:103F9000BC01009729F0E091BB01F091BC010995AB
:103FA000CF91DF91FF91EF91BF91AF919F918F9151
:103FB0007F916F915F914F913F912F910F900FBE25
:103FC0000F901F9018951F920F920FB60F92112409
:103FD0002F933F934F935F936F937F938F939F9311
:103FE000AF93BF93EF93FF93DF93CF93CDB7DEB73C
:103FF0008091BD019091BE01009729F0E091BD0133
:10400000F091BE010995CF91DF91FF91EF91BF91A2
:10401000AF919F918F917F916F915F914F913F9160
:104020002F910F900FBE0F901F9018951F920F9217
:104030000FB60F9211242F933F934F935F936F937B
:104040007F938F939F93AF93BF93EF93FF93DF93F0
:10405000CF93CDB7DEB78091BF019091C00100979B
:1040600029F0E091BF01F091C0010995CF91DF9156
:10407000FF91EF91BF91AF919F918F917F916F9140
:104080005F914F913F912F910F900FBE0F901F9016
:104090001895DF93CF93CDB7DEB7EBE3F0E0108256
:1040A000E8E3F0E01082E5E3F0E01082E2E3F0E024
:1040B0001082EAE3F0E08FEF8083E7E3F0E08FEF38
:1040C0008083E4E3F0E08FEF8083E1E3F0E08EEFC4
:1040D0008083CF91DF910895DF93CF9300D000D0FC
:1040E0000F92CDB7DEB78A836B838A81282F30E0A9
:1040F0003D832C838C819D8181309105C1F12C8180
:104100003D81223031052CF48C819D81009771F026
:104110008EC02C813D812230310509F449C08C814B
:104120009D818330910509F463C081C0E9E3F0E02B
:104130008081482F50E08B81282F30E081E090E093
:1041400002C0880F991F2A95E2F7809590959A01F1
:1041500028233923E9E3F0E08081882F90E0198259
:104160002817390709F463C081E0898360C0E6E35A
:10417000F0E08081482F50E08B81282F30E081E0F3
:1041800090E002C0880F991F2A95E2F780959095DC
:104190009A0128233923E6E3F0E08081882F90E01C
:1041A00019822817390709F442C081E089833FC08A
:1041B000E3E3F0E08081482F50E08B81282F30E04E
:1041C00081E090E002C0880F991F2A95E2F7809560
:1041D00090959A0128233923E3E3F0E08081882F2A
:1041E00090E019822817390711F181E089831FC0F7
:1041F000E0E3F0E08081482F50E08B81282F30E011
:1042000081E090E002C0880F991F2A95E2F780951F
:1042100090959A0128233923E0E3F0E08081882FEC
:1042200090E019822817390711F081E0898389818C
:104230000F900F900F900F900F90CF91DF910895F6
:10424000DF93CF93CDB7DEB72D970FB6F894DEBFCF
:104250000FBECDBF89836A834B838981282F30E0CD
:104260003D872C878C859D858130910509F44FC051
:104270002C853D85223031052CF48C859D85009759
:1042800071F0EBC02C853D852230310509F477C0F3
:104290008C859D858330910509F4A9C0DEC08B8192
:1042A000282F30E03B872A878A859B850097D1F0AD
:1042B0002A853B852130310509F0CFC0ABE3B0E062
:1042C000EBE3F0E08081482F8A81282F30E081E005
:1042D00090E0022E02C0880F991F0A94E2F7842B07
:1042E0008C93BBC0ABE3B0E0EBE3F0E08081482F00
:1042F0008A81282F30E081E090E0022E02C0880FF2
:10430000991F0A94E2F7809584238C93A6C08B8131
:10431000282F30E039872887888599850097D1F044
:10432000288539852130310509F097C0A8E3B0E030
:10433000E8E3F0E08081482F8A81282F30E081E097
:1043400090E0022E02C0880F991F0A94E2F7842B96
:104350008C9383C0A8E3B0E0E8E3F0E08081482FCD
:104360008A81282F30E081E090E0022E02C0880F81
:10437000991F0A94E2F7809584238C936EC08B81F9
:10438000282F30E03F832E838E819F810097D1F0CC
:104390002E813F812130310509F05FC0A5E3B0E0F7
:1043A000E5E3F0E08081482F8A81282F30E081E02A
:1043B00090E0022E02C0880F991F0A94E2F7842B26
:1043C0008C934BC0A5E3B0E0E5E3F0E08081482F9B
:1043D0008A81282F30E081E090E0022E02C0880F11
:1043E000991F0A94E2F7809584238C9336C08B81C1
:1043F000282F30E03D832C838C819D810097C9F06C
:104400002C813D812130310541F5A2E3B0E0E2E3AA
:10441000F0E08081482F8A81282F30E081E090E011
:10442000022E02C0880F991F0A94E2F7842B8C9306
:1044300014C0A2E3B0E0E2E3F0E08081482F8A817B
:10444000282F30E081E090E0022E02C0880F991FF3
:104450000A94E2F7809584238C932D960FB6F894F6
:10446000DEBF0FBECDBFCF91DF910895DF93CF9315
:10447000CDB7DEB72D970FB6F894DEBF0FBECDBF18
:1044800089836A834B838981282F30E03D872C877D
:104490008C859D858130910509F44FC02C853D8523
:1044A000223031052CF48C859D85009771F0EBC08E
:1044B0002C853D852230310509F477C08C859D859A
:1044C0008330910509F4A9C0DEC08B81282F30E02C
:1044D0003B872A878A859B850097D1F02A853B8573
:1044E0002130310509F0CFC0AAE3B0E0EAE3F0E003
:1044F0008081482F8A81282F30E081E090E0022ED1
:1045000002C0880F991F0A94E2F7842B8C93BBC0DA
:10451000AAE3B0E0EAE3F0E08081482F8A81282F07
:1045200030E081E090E0022E02C0880F991F0A94CB
:10453000E2F7809584238C93A6C08B81282F30E0EE
:1045400039872887888599850097D1F0288539850E
:104550002130310509F097C0A7E3B0E0E7E3F0E0D0
:104560008081482F8A81282F30E081E090E0022E60
:1045700002C0880F991F0A94E2F7842B8C9383C0A2
:10458000A7E3B0E0E7E3F0E08081482F8A81282F9D
:1045900030E081E090E0022E02C0880F991F0A945B
:1045A000E2F7809584238C936EC08B81282F30E0B6
:1045B0003F832E838E819F810097D1F02E813F8192
:1045C0002130310509F05FC0A4E3B0E0E4E3F0E09E
:1045D0008081482F8A81282F30E081E090E0022EF0
:1045E00002C0880F991F0A94E2F7842B8C934BC06A
:1045F000A4E3B0E0E4E3F0E08081482F8A81282F33
:1046000030E081E090E0022E02C0880F991F0A94EA
:10461000E2F7809584238C9336C08B81282F30E07D
:104620003D832C838C819D810097C9F02C813D8135
:104630002130310541F5A1E3B0E0E1E3F0E0808114
:10464000482F8A81282F30E081E090E0022E02C0BE
:10465000880F991F0A94E2F7842B8C9314C0A1E36E
:10466000B0E0E1E3F0E08081482F8A81282F30E03C
:1046700081E090E0022E02C0880F991F0A94E2F7B1
:10468000809584238C932D960FB6F894DEBF0FBED1
:10469000CDBFCF91DF910895DF93CF9300D000D0AD
:1046A000CDB7DEB789836A838981282F30E03C83C8
:1046B0002B838B819C8181309105D1F02B813C81B2
:1046C000223031052CF48B819C81009761F01EC053
:1046D0002B813C812230310581F08B819C8183309C
:1046E000910581F013C0EBE3F0E08A8180830EC076
:1046F000E8E3F0E08A81808309C0E5E3F0E08A81A5
:10470000808304C0E2E3F0E08A8180830F900F9001
:104710000F900F90CF91DF910895DF93CF9300D04A
:1047200000D0CDB7DEB789836A838981282F30E036
:104730003C832B838B819C8181309105D1F02B812F
:104740003C81223031052CF48B819C81009761F0F3
:104750001EC02B813C812230310581F08B819C81F0
:104760008330910581F013C0EAE3F0E08A81808311
:104770000EC0E7E3F0E08A81808309C0E4E3F0E063
:104780008A81808304C0E1E3F0E08A8180830F9016
:104790000F900F900F90CF91DF910895DF93CF93FB
:1047A00000D0CDB7DEB789836A83A6E2B0E0E6E247
:1047B000F0E08081887F8C93A6E2B0E0E6E2F0E052
:1047C00090818981892B8C93A7E2B0E0E7E2F0E049
:1047D00080818F738C93A7E2B0E0E7E2F0E0808104
:1047E000282F8A81882F90E000249695879507943A
:1047F000969587950794982F802D822B8C93A7E20E
:10480000B0E0E7E2F0E080818F7D8C93A6E2B0E03B
:10481000E6E2F0E0808180688C93A6E2B0E0E6E218
:10482000F0E080818F7D8C930F900F90CF91DF917E
:104830000895DF93CF9300D00F92CDB7DEB78B836F
:104840001A821982A7E2B0E0E7E2F0E08081807E80
:104850008C93A7E2B0E0E7E2F0E090818B81892BB6
:104860008C93A6E2B0E0E6E2F0E0808180648C9375
:10487000E6E2F0E08081882F90E09C012F7EE6E266
:10488000F0E08081882F90E02817390789F3E4E26F
:10489000F0E08081282F30E0E5E2F0E08081882F91
:1048A00090E0982F8827822B932B9A838983898184
:1048B0009A810F900F900F90CF91DF910895DF9321
:1048C000CF930F92CDB7DEB78983A7E2B0E0E7E2DE
:1048D000F0E08081807E8C93A7E2B0E0E7E2F0E038
:1048E00090818981892B8C93A6E2B0E0E6E2F0E02A
:1048F000808180648C930F90CF91DF910895DF9336
:10490000CF9300D0CDB7DEB7E6E2F0E08081882F0C
:1049100090E09C012F7EE6E2F0E08081882F90E01D
:104920002817390791F0E4E2F0E08081282F30E089
:10493000E5E2F0E08081882F90E0982F8827A90198
:10494000482B592B5A83498302C01A8219828981C4
:104950009A810F900F90CF91DF910895DF93CF93BD
:10496000CDB7DEB7A6E2B0E0E6E2F0E08081886095
:104970008C93CF91DF910895DF93CF93CDB7DEB7BE
:10498000A6E2B0E0E6E2F0E08081877F8C93CF91F1
:10499000DF910895DF93CF9300D0CDB7DEB79A8330
:1049A000898389819A819093C2018093C1010F907C
:1049B0000F90CF91DF9108951F920F920FB60F9233
:1049C00011242F933F934F935F936F937F938F9314
:1049D0009F93AF93BF93EF93FF93DF93CF93CDB7A5
:1049E000DEB78091C1019091C201009729F0E0915A
:1049F000C101F091C2010995CF91DF91FF91EF9133
:104A0000BF91AF919F918F917F916F915F914F91E6
:104A10003F912F910F900FBE0F901F901895DF932D
:104A2000CF93CDB7DEB780E062E040E020E00E94A7
:104A300028178FEA97E20E94061B81E897E20E94FE
:104A4000D01ACF91DF9108950F931F93DF93CF93E7
:104A5000CDB7DEB76C970FB6F894DEBF0FBECDBFF3
:104A600080E090E00E94BE1A1092C4011092C3012F
:104A700083E064E041E00E94202180E090E0A0E239
:104A8000B1E48D8B9E8BAF8BB88F6D897E898F89BA
:104A9000988D2BEA3AEA4AE250E40E941309DC01BD
:104AA000CB01898B9A8BAB8BBC8B69897A898B897B
:104AB0009C8920E030E040E85FE30E94190B8823E6
:104AC0001CF481E0888B91C069897A898B899C89E3
:104AD00020E030E04FE753E40E94B90A18160CF0CA
:104AE0007BC06D897E898F89988D20E030E04AE710
:104AF00054E40E940D0ADC01CB018C879D87AE87B0
:104B0000BF876C857D858E859F8520E030E04AEFEC
:104B100054E40E941309DC01CB0188879987AA8796
:104B2000BB87688579858A859B8520E030E040E8F1
:104B30005FE30E94190B88232CF481E090E09F83AF
:104B40008E833FC0688579858A859B8520E03FEF0D
:104B50004FE757E40E94B90A18164CF56C857D851D
:104B60008E859F8520E030E040E251E40E941309E9
:104B7000DC01CB01BC01CD010E94C800DC01CB01EE
:104B80009F838E830FC088EC90E09D838C838C8103
:104B90009D810197F1F79D838C838E819F81019781
:104BA0009F838E838E819F81009769F724C06885DB
:104BB00079858A859B850E94C800DC01CB019F8393
:104BC0008E838E819F819B838A838A819B810197BB
:104BD000F1F79B838A830FC069897A898B899C89C5
:104BE0000E94C800DC01CB01888B88898983898178
:104BF0008A95F1F7898383E064E040E00E942021F8
:104C000080E00E947F190E94181A8091C3018230AF
:104C1000E0F32091D7013091D8018091D901909192
:104C2000DA018901081B190B8091C401882F90E0DB
:104C3000A0E0B0E02FEF3FEF40E050E0BC01CD013D
:104C40000E94C63ADC01CB01800F911F9A8F898F99
:104C5000898D9A8D2AE330E0B9010E94E53ACB01B3
:104C60009C8F8B8F0E94261A8B8D9C8D6C960FB615
:104C7000F894DEBF0FBECDBFCF91DF911F910F9192
:104C80000895DF93CF93CDB7DEB768970FB6F8944A
:104C9000DEBF0FBECDBF8091C301882309F0CFC016
:104CA00083E064E041E00E94202180E090E0A0E207
:104CB000B1E48D8B9E8BAF8BB88F6D897E898F8988
:104CC000988D2BEA3AEA4AE250E40E941309DC018B
:104CD000CB01898B9A8BAB8BBC8B69897A898B8949
:104CE0009C8920E030E040E85FE30E94190B8823B4
:104CF0001CF481E0888B91C069897A898B899C89B1
:104D000020E030E04FE753E40E94B90A18160CF097
:104D10007BC06D897E898F89988D20E030E04AE7DD
:104D200054E40E940D0ADC01CB018C879D87AE877D
:104D3000BF876C857D858E859F8520E030E04AEFBA
:104D400054E40E941309DC01CB0188879987AA8764
:104D5000BB87688579858A859B8520E030E040E8BF
:104D60005FE30E94190B88232CF481E090E09F837D
:104D70008E833FC0688579858A859B8520E03FEFDB
:104D80004FE757E40E94B90A18164CF56C857D85EB
:104D90008E859F8520E030E040E251E40E941309B7
:104DA000DC01CB01BC01CD010E94C800DC01CB01BC
:104DB0009F838E830FC088EC90E09D838C838C81D1
:104DC0009D810197F1F79D838C838E819F8101974F
:104DD0009F838E838E819F81009769F724C06885A9
:104DE00079858A859B850E94C800DC01CB019F8361
:104DF0008E838E819F819B838A838A819B81019789
:104E0000F1F79B838A830FC069897A898B899C8992
:104E10000E94C800DC01CB01888B88898983898145
:104E20008A95F1F7898383E064E040E00E942021C5
:104E300080E00E947F190E94181A0E946C1A6896DE
:104E40000FB6F894DEBF0FBECDBFCF91DF910895AE
:104E50000F931F93DF93CF93CDB7DEB728970FB68D
:104E6000F894DEBF0FBECDBF9E838D838091C301BA
:104E70008230C1F52091D7013091D8018091D901BC
:104E80009091DA018901081B190B8091C401882FC8
:104E900090E0A0E0B0E02FEF3FEF40E050E0BC0139
:104EA000CD010E94C63ADC01CB01800F911F9A838D
:104EB000898389819A812AE330E0B9010E94E53A29
:104EC000CB019C838B83ED81FE818B819C819183BF
:104ED00080830E946C1A1092C30181E090E0988751
:104EE0008F8302C018861F828F81988528960FB6FF
:104EF000F894DEBF0FBECDBFCF91DF911F910F9110
:104F00000895DF93CF93CDB7DEB78091C301882397
:104F100079F41092C4010E940D1A9093DA018093E3
:104F2000D90181E08093C30181E00E947F1914C000
:104F30008091C301813081F40E940D1A9093D801B1
:104F40008093D70182E08093C30180E00E947F19A3
:104F50000E947A1A0E94261ACF91DF910895DF935A
:104F6000CF93CDB7DEB78091C4018F5F8093C4012A
:104F7000CF91DF910895DF93CF93CDB7DEB7E89758
:104F80000FB6F894DEBF0FBECDBF80E060E041E019
:104F90000E94202180E061E040E00E94202180E02A
:104FA00062E041E00E94202180E063E041E00E9455
:104FB000202180E090E0A0E2B1E48DAB9EABAFABEE
:104FC000B8AF6DA97EA98FA998AD20E030E04AEF77
:104FD00054E40E941309DC01CB0189AB9AABABAB63
:104FE000BCAB69A97AA98BA99CA920E030E040E874
:104FF0005FE30E94190B88232CF481E090E098ABCA
:105000008FA73FC069A97AA98BA99CA920E03FEF8F
:105010004FE757E40E94B90A18164CF56DA97EA90E
:105020008FA998AD20E030E040E251E40E941309DE
:10503000DC01CB01BC01CD010E94C800DC01CB0129
:1050400098AB8FA70FC088EC90E09EA78DA78DA589
:105050009EA50197F1F79EA78DA78FA598A9019707
:1050600098AB8FA78FA598A9009769F714C069A975
:105070007AA98BA99CA90E94C800DC01CB0198AB3E
:105080008FA78FA598A99CA78BA78BA59CA50197F7
:10509000F1F79CA78BA780E060E041E00E9420210F
:1050A00080E061E041E00E94202180E062E040E099
:1050B0000E94202180E063E041E00E94202180E006
:1050C00090E0A0E2B1E48FA398A7A9A7BAA76FA127
:1050D00078A589A59AA520E030E04AEF54E40E9423
:1050E0001309DC01CB018BA39CA3ADA3BEA36BA1D1
:1050F0007CA18DA19EA120E030E040E85FE30E940A
:10510000190B88232CF481E090E09AA389A33FC077
:105110006BA17CA18DA19EA120E03FEF4FE757E45A
:105120000E94B90A18164CF56FA178A589A59AA511
:1051300020E030E040E251E40E941309DC01CB01A1
:10514000BC01CD010E94C800DC01CB019AA389A358
:105150000FC088EC90E098A38F8F8F8D98A1019756
:10516000F1F798A38F8F89A19AA101979AA389A398
:1051700089A19AA1009769F714C06BA17CA18DA1A8
:105180009EA10E94C800DC01CB019AA389A389A13A
:105190009AA19E8F8D8F8D8D9E8D0197F1F79E8F99
:1051A0008D8F80E060E041E00E94202180E061E09E
:1051B00041E00E94202180E062E041E00E94202145
:1051C00080E063E040E00E94202180E090E0A0E2E7
:1051D000B1E4898F9A8FAB8FBC8F698D7A8D8B8D5F
:1051E0009C8D20E030E04AEF54E40E941309DC017A
:1051F000CB018D8B9E8BAF8BB88F6D897E898F890C
:10520000988D20E030E040E85FE30E94190B88238E
:105210002CF481E090E09C8B8B8B3FC06D897E8964
:105220008F89988D20E03FEF4FE757E40E94B90A3D
:1052300018164CF5698D7A8D8B8D9C8D20E030E0B1
:1052400040E251E40E941309DC01CB01BC01CD0115
:105250000E94C800DC01CB019C8B8B8B0FC088ECBB
:1052600090E09A8B898B89899A890197F1F79A8BBB
:10527000898B8B899C8901979C8B8B8B8B899C89D3
:10528000009769F714C06D897E898F89988D0E9477
:10529000C800DC01CB019C8B8B8B8B899C89988B04
:1052A0008F878F8598890197F1F7988B8F8780E09A
:1052B00060E040E00E94202180E061E041E00E9447
:1052C000202180E062E041E00E94202180E063E054
:1052D00041E00E94202180E090E0A0E2B1E48B87D1
:1052E0009C87AD87BE876B857C858D859E8520E0FC
:1052F00030E04AEF54E40E941309DC01CB018F83B4
:105300009887A987BA876F81788589859A8520E0F3
:1053100030E040E85FE30E94190B88232CF481E021
:1053200090E09E838D833FC06F81788589859A85C3
:1053300020E03FEF4FE757E40E94B90A18164CF5FA
:105340006B857C858D859E8520E030E040E251E4D0
:105350000E941309DC01CB01BC01CD010E94C800F1
:10536000DC01CB019E838D830FC088EC90E09C8391
:105370008B838B819C810197F1F79C838B838D813B
:105380009E8101979E838D838D819E81009769F711
:1053900014C06F81788589859A850E94C800DC01D8
:1053A000CB019E838D838D819E819A8389838981A0
:1053B0009A810197F1F79A838983E8960FB6F8945A
:1053C000DEBF0FBECDBFCF91DF910895DF93CF93A6
:1053D000CDB7DEB7C054D0400FB6F894DEBF0FBED5
:1053E000CDBFFE01FF9691838083FE01FF968081F1
:1053F0009181982F8827990F990F990F28E631E00E
:10540000B9010E94E53ACB019EAF8DAF8DAD9EAD47
:1054100096958795969587959CAF8BAF1AAE19AEEA
:105420001DC280E060E041E00E94202180E061E058
:1054300040E00E94202180E062E041E00E942021C3
:1054400080E063E041E00E94202180E090E0A0E263
:10545000B1E48DAB9EABAFABB8AF6DA97EA98FA900
:1054600098AD20E030E04AEF54E40E941309DC01DB
:10547000CB0189AB9AABABABBCAB69A97AA98BA9C1
:105480009CA920E030E040E85FE30E94190B8823EC
:105490002CF481E090E098AB8FA73FC069A97AA96E
:1054A0008BA99CA920E03FEF4FE757E40E94B90A7F
:1054B00018164CF56DA97EA98FA998AD20E030E0B3
:1054C00040E251E40E941309DC01CB01BC01CD0193
:1054D0000E94C800DC01CB0198AB8FA70FC088ECFD
:1054E00090E09EA78DA78DA59EA50197F1F79EA799
:1054F0008DA78FA598A9019798AB8FA78FA598A97D
:10550000009769F714C069A97AA98BA99CA90E9480
:10551000C800DC01CB0198AB8FA78FA598A99CA7E9
:105520008BA78BA59CA50197F1F79CA78BA780E083
:1055300060E041E00E94202180E061E041E00E94C3
:10554000202180E062E040E00E94202180E063E0D2
:1055500041E00E94202180E090E0A0E2B1E48FA32E
:1055600098A7A9A7BAA76FA178A589A59AA520E0B1
:1055700030E04AEF54E40E941309DC01CB018BA315
:105580009CA3ADA3BEA36BA17CA18DA19EA120E095
:1055900030E040E85FE30E94190B88232CF481E09F
:1055A00090E09AA389A33FC06BA17CA18DA19EA18D
:1055B00020E03FEF4FE757E40E94B90A18164CF578
:1055C0006FA178A589A59AA520E030E040E251E4DA
:1055D0000E941309DC01CB01BC01CD010E94C8006F
:1055E000DC01CB019AA389A30FC088EC90E098A3BB
:1055F0008F8F8F8D98A10197F1F798A38F8F89A135
:105600009AA101979AA389A389A19AA1009769F702
:1056100014C06BA17CA18DA19EA10E94C800DC01D9
:10562000CB019AA389A389A19AA19E8F8D8F8D8D7D
:105630009E8D0197F1F79E8F8D8F80E060E041E0B5
:105640000E94202180E061E041E00E94202180E072
:1056500062E041E00E94202180E063E040E00E949F
:10566000202180E090E0A0E2B1E4898F9A8FAB8F97
:10567000BC8F698D7A8D8B8D9C8D20E030E04AEF58
:1056800054E40E941309DC01CB018D8B9E8BAF8B00
:10569000B88F6D897E898F89988D20E030E040E851
:1056A0005FE30E94190B88232CF481E090E09C8B2F
:1056B0008B8B3FC06D897E898F89988D20E03FEF6D
:1056C0004FE757E40E94B90A18164CF5698D7A8D98
:1056D0008B8D9C8D20E030E040E251E40E94130964
:1056E000DC01CB01BC01CD010E94C800DC01CB0173
:1056F0009C8B8B8B0FC088EC90E09A8B898B89896F
:105700009A890197F1F79A8B898B8B899C890197EC
:105710009C8B8B8B8B899C89009769F714C06D8952
:105720007E898F89988D0E94C800DC01CB019C8BFB
:105730008B8B8B899C89988B8F878F859889019714
:10574000F1F7988B8F8780E060E040E00E94202195
:1057500080E061E041E00E94202180E062E041E0E1
:105760000E94202180E063E041E00E94202180E04F
:1057700090E0A0E2B1E48B879C87AD87BE876B8504
:105780007C858D859E8520E030E04AEF54E40E94C0
:105790001309DC01CB018F839887A987BA876F81B2
:1057A000788589859A8520E030E040E85FE30E94B3
:1057B000190B88232CF481E090E09E838D833FC0F9
:1057C0006F81788589859A8520E03FEF4FE757E420
:1057D0000E94B90A18164CF56B857C858D859E85CF
:1057E00020E030E040E251E40E941309DC01CB01EB
:1057F000BC01CD010E94C800DC01CB019E838D83DA
:105800000FC088EC90E09C838B838B819C810197F7
:10581000F1F79C838B838D819E8101979E838D837D
:105820008D819E81009769F714C06F817885898585
:105830009A850E94C800DC01CB019E838D838D81F7
:105840009E819A83898389819A810197F1F79A834E
:10585000898389AD9AAD01969AAF89AF29AD3AADEA
:105860008BAD9CAD2817390708F4DBCDC05CDF4F4A
:105870000FB6F894DEBF0FBECDBFCF91DF91089574
:10588000DF93CF9300D000D0CDB7DEB789836A8392
:105890008981282F30E03C832B838B819C8184304D
:1058A000910509F455C02B813C8125303105DCF48C
:1058B0008B819C818130910509F43BC02B813C8117
:1058C000223031052CF48B819C81009769F15DC0F9
:1058D0002B813C812230310589F18B819C81833081
:1058E000910589F152C02B813C812730310509F4A3
:1058F0003EC08B819C81883091055CF42B813C817A
:105900002530310551F18B819C818630910551F113
:105910003CC02B813C812830310571F18B819C8109
:105920008930910571F131C08A816FE30E944C2367
:105930002CC08A8166E00E944C2327C08A816BE5D7
:105940000E944C2322C08A816FE40E944C231DC018
:105950008A8166E60E944C2318C08A816DE60E9407
:105960004C2313C08A816DE70E944C230EC08A81AC
:1059700067E00E944C2309C08A816FE70E944C2394
:1059800004C08A816FE60E944C230F900F900F9005
:105990000F90CF91DF910895DF93CF93CDB7DEB70E
:1059A000A1970FB6F894DEBF0FBECDBF8A8F7C8F54
:1059B0006B8FCE0140969E8F8D8FE3E8F1E0F8A3C8
:1059C000EF8FFAE0F9A3EF8DF8A100808F8D98A1F9
:1059D000019698A38F8FED8DFE8D00828D8D9E8D0B
:1059E00001969E8F8D8F99A1915099A3E9A1EE23E5
:1059F00051F71F8688C08F85282F30E0CE01409652
:105A0000FC01E20FF31F80816A8D0E94402C8B8D78
:105A10009C8DCC01A0E0B0E0BC01CD010E949D0BAB
:105A2000DC01CB018B879C87AD87BE876B857C852E
:105A30008D859E8520E030E04AEF54E40E941309F2
:105A4000DC01CB018F839887A987BA876F8178851E
:105A500089859A8520E030E040E85FE30E94190BD9
:105A600088232CF481E090E09E838D833FC06F817A
:105A7000788589859A8520E03FEF4FE757E40E94BB
:105A8000B90A18164CF56B857C858D859E8520E0BE
:105A900030E040E251E40E941309DC01CB01BC017B
:105AA000CD010E94C800DC01CB019E838D830FC015
:105AB00088EC90E09C838B838B819C810197F1F72C
:105AC0009C838B838D819E8101979E838D838D81A5
:105AD0009E81009769F714C06F81788589859A85C2
