:100000000C942A000C949D020C94C6020C94EF02EE
:100010000C94C80B0C949F0B0C94A6090C94CF095C
:100020000C94F8090C94210A0C946A080C94410869
:100030000C949B0F0C947F0E0C94A80E0C94D10E74
:100040000C94C2070C94BB120C9447000C946010E3
:100050000C94470011241FBECFE5D8E0DEBFCDBF12
:1000600011E0A0E6B0E0EEE7F5E302C005900D92E6
:10007000A03AB107D9F711E0A0EAB1E001C01D92A2
:10008000A73EB107E1F70E9449000C94BD1A0C94F9
:10009000000080E060E041E020E00E945B0082EE32
:1000A00091E00E94EC12482F8093E60180E060E02E
:1000B0000E941901F4CF522F8130B1F1813038F014
:1000C000823009F45EC0833009F0B2C086C041308E
:1000D00091F42AB381E090E002C0880F991F6A95DD
:1000E000E2F7982F282B2ABB5130A1F08BB39095C3
:1000F00098239BBB08952AB381E090E002C0880F4B
:10010000991F6A95E2F7982F382F309523232ABB41
:10011000513019F48BB3982BECCF552309F088C0DC
:100120008BB338233BBB0895413089F427B381E07A
:1001300090E002C0880F991F6A95E2F7982F282B4C
:1001400027BB513099F088B39095982311C027B3FD
:1001500081E090E002C0880F991F6A95E2F7982F1E
:10016000382F3095232327BB513021F488B3982BA7
:1001700098BB0895552309F05BC088B3382338BB7A
:100180000895413089F424B381E090E002C0880FE3
:10019000991F6A95E2F7982F282B24BB513099F0CC
:1001A00085B39095982311C024B381E090E002C0FC
:1001B000880F991F6A95E2F7982F382F30952323DF
:1001C00024BB513021F485B3982B95BB089555235A
:1001D00079F585B3382335BB0895413089F421B3CF
:1001E00081E090E002C0880F991F6A95E2F7982F8E
:1001F000282B21BB513099F082B39095982311C0E0
:1002000021B381E090E002C0880F991F6A95E2F760
:10021000982F382F3095232321BB513021F482B3FE
:10022000982B92BB0895552319F482B3382332BB1F
:100230000895813009F1813030F08230B1F183309E
:1002400009F064C04BC0413059F42BB381E090E019
:1002500002C0880F991F6A95E2F7282B2BBB0895DF
:100260002BB381E090E002C0880F991F6A95E2F7F6
:10027000809582238BBB0895413059F428B381E0E7
:1002800090E002C0880F991F6A95E2F7282B28BBDF
:10029000089528B381E090E002C0880F991F6A9505
:1002A000E2F78095822388BB0895413059F425B345
:1002B00081E090E002C0880F991F6A95E2F7282B31
:1002C00025BB089525B381E090E002C0880F991FF7
:1002D0006A95E2F78095822385BB0895413059F4F1
:1002E00022B381E090E002C0880F991F6A95E2F77F
:1002F000282B22BB089522B381E090E002C0880F32
:10030000991F6A95E2F78095822382BB0895813018
:1003100059F0813030F0823051F0833059F070E084
:100320001DC089B349B308C086B346B305C083B3C3
:1003300043B302C080B340B370E021E030E002C0BC
:10034000220F331F6A95E2F72095309590E028231D
:10035000392350E02417350709F071E0872F0895FD
:10036000813091F0813028F08230C9F0833061F51E
:1003700021C02BB381E090E002C0880F991F6A95DD
:10038000E2F728272BBB089528B381E090E002C054
:10039000880F991F6A95E2F7282728BB089525B38F
:1003A00081E090E002C0880F991F6A95E2F7282744
:1003B00025BB089522B381E090E002C0880F991F09
:1003C0006A95E2F7282722BB0895813051F08130E9
:1003D00028F0823049F0833061F409C06ABB4BBB1E
:1003E000089567BB48BB089564BB45BB089561BBD6
:1003F00042BB0895813049F0813028F0823039F0D5
:10040000833041F406C06BBB089568BB089565BB9B
:10041000089562BB0895813051F0813030F0823010
:1004200041F0833041F080E0089589B3089586B3A8
:10043000089583B3089580B30895643030F5813012
:10044000910559F08130910518F00297F1F40EC032
:1004500085B78C7F85BF85B706C085B7837F85BF8D
:1004600085B7660F660F862B85BF0895623019F039
:10047000633041F403C084B78F7B02C084B78064CB
:1004800084BF089584B78F7B84BF08958130910520
:1004900049F08130910518F0029759F407C08BB7E5
:1004A000806402C08BB780688BBF08958BB7806271
:1004B0008BBF08958130910549F08130910518F086
:1004C000029759F407C08BB78F7B02C08BB78F7729
:1004D0008BBF08958BB78F7D8BBF089581309105B9
:1004E00049F08130910518F0029759F407C08AB796
:1004F000806402C08AB780688ABF08958AB7806224
:100500008ABF089561157105B9F08130910559F0E0
:100510008130910518F0029779F40AC07093A50113
:100520006093A40108957093A3016093A2010895BC
:100530007093A1016093A00108951F920F920FB6CE
:100540000F9211242F933F934F935F936F937F9359
:100550008F939F93AF93BF93EF93FF93E091A40189
:10056000F091A501309709F00995FF91EF91BF91A6
:10057000AF919F918F917F916F915F914F913F913B
:100580002F910F900FBE0F901F9018951F920F92F2
:100590000FB60F9211242F933F934F935F936F9356
:1005A0007F938F939F93AF93BF93EF93FF93E091CC
:1005B000A201F091A301309709F00995FF91EF9105
:1005C000BF91AF919F918F917F916F915F914F916B
:1005D0003F912F910F900FBE0F901F9018951F9273
:1005E0000F920FB60F9211242F933F934F935F9367
:1005F0006F937F938F939F93AF93BF93EF93FF93EB
:10060000E091A001F091A101309709F00995FF91C7
:10061000EF91BF91AF919F918F917F916F915F917A
:100620004F913F912F910F900FBE0F901F901895F3
:10063000682F83E00E94FA01089583E06FEF40E0A5
:100640000E94E50108951F93CF93DF93182F80E058
:1006500060E041E00E94190180E061E040E00E941A
:100660001901C12FD0E040E0CE018F7E8C179D078D
:1006700009F041E080E063E00E94190140E0CE0112
:100680008F7D8C179D0709F041E080E064E00E94B7
:10069000190140E0CE018F7B8C179D0709F041E0E6
:1006A00080E065E00E94190140E0CE018F778C1751
:1006B0009D0709F041E080E066E00E94190180E0BA
:1006C00062E041E00E94190180ED97E00197F1F7A7
:1006D00080E062E040E00E9419011295107FC12F76
:1006E000D0E040E0CE018F7E8C179D0709F041E0FD
:1006F00080E063E00E94190140E0CE018F7D8C17FD
:100700009D0709F041E080E064E00E94190140E0AB
:10071000CE018F7B8C179D0709F041E080E065E0FA
:100720000E94190140E0CE018F778C179D0709F0D8
:1007300041E080E066E00E94190180E062E041E073
:100740000E94190180ED97E00197F1F780E062E0E7
:1007500040E00E94190180EA9FE00197F1F7DF91E4
:10076000CF911F9108956F927F928F929F92AF9237
:10077000BF92CF92DF92EF92FF920F931F933B01B4
:100780004C01611571058105910519F480E30E9402
:10079000230381E0A82EB12CC12CD12C20C0C6018E
:1007A000B5012AE030E040E050E00E94031A7B01EE
:1007B0008C01C401B3010E94421A5B016C01AE0CB2
:1007C000BF1CC01ED11EC401B3012AE030E040E0CE
:1007D00050E00E94421AC901DA013C014D01611446
:1007E000710481049104D9F618C0C601B5012AE04C
:1007F00030E040E050E00E94421A862F805D0E9467
:100800002303C601B5012AE030E040E050E00E9439
:10081000421AC901DA015C016D0181E0A816B10438
:10082000C104D10411F71F910F91FF90EF90DF9059
:10083000CF90BF90AF909F908F907F906F900895D2
:100840001F93CF93DF93EC0110E003C00E942303BA
:100850001F5FFE01E10FF11D80818823B9F7DF9151
:10086000CF911F9108951F93CF93DF93182F80E0AE
:1008700060E040E00E94190180E061E040E00E94F9
:100880001901C12FD0E040E0CE018F7E8C179D076B
:1008900009F041E080E063E00E94190140E0CE01F0
:1008A0008F7D8C179D0709F041E080E064E00E9495
:1008B000190140E0CE018F7B8C179D0709F041E0C4
:1008C00080E065E00E94190140E0CE018F778C172F
:1008D0009D0709F041E080E066E00E94190180E098
:1008E00062E041E00E94190180ED97E00197F1F785
:1008F00080E062E040E00E9419018091A601882317
:1009000009F43EC01295107FC12FD0E040E0CE0127
:100910008F7E8C179D0709F041E080E063E00E9424
:10092000190140E0CE018F7D8C179D0709F041E051
:1009300080E064E00E94190140E0CE018F7B8C17BB
:100940009D0709F041E080E065E00E94190140E068
:10095000CE018F778C179D0709F041E080E066E0BB
:100960000E94190180E062E041E00E94190180EDDF
:1009700097E00197F1F780E062E040E00E94190102
:1009800080EA9FE00197F1F7DF91CF911F910895E1
:10099000FF920F931F93CF93DF938C016830C8F4BD
:1009A000660F660F660F6064862F88770E94330497
:1009B000C0E0D0E090EAF92EF801EC0FFD1F808135
:1009C0000E9423038F2D8A95F1F72196C830D10517
:1009D00099F782E00E94330480EA9FE00197F1F7E3
:1009E000DF91CF911F910F91FF900895813019F001
:1009F000823041F402C0615001C0615C862F806882
:100A00000E94330480ED97E00197F1F708951F935A
:100A1000182F862F642F0E94F604812F0E94230333
:100A20001F91089581E00E94330480EA9FE00197BE
:100A3000F1F708951F9380E063E041E020E00E9419
:100A40005B0080E064E041E020E00E945B0080E029
:100A500065E041E020E00E945B0080E066E041E06C
:100A600020E00E945B0080E060E041E020E00E9426
:100A70005B0080E061E041E020E00E945B0080E0FC
:100A800062E041E020E00E945B0080E69AEE019780
:100A9000F1F780E20E94330480E20E94330480E890
:100AA0000E9433041AE6812F8A95F1F780E00E94B4
:100AB000330480EC0E9433041A95F1F780E00E9421
:100AC000330480E10E94330480EA9FE00197F1F74C
:100AD00080E00E94330480E60E94330481E080932A
:100AE000A6011F910895AF92BF92CF92DF92EF922D
:100AF000FF920F931F93CF93DF9320E7C22E20E046
:100B0000D22E0FEFEE24FF2498ECA92EB12C82E018
:100B1000F601608140E00E94190182E0609174005A
:100B20000E948701882319F4C0E0D0E01FC082E052
:100B3000609175000E948701882319F4C1E0D0E01C
:100B400015C082E0609176000E948701882319F425
:100B5000C2E0D0E00BC082E0609177000E94870184
:100B6000882311F010E01EC0C3E0D0E08CED95E0CA
:100B7000F5013197F1F70197D9F78E010C581F4F06
:100B800082E0F80160810E9487018823C9F3F701A0
:100B9000EE0FFF1FEE0FFF1FEC0FFD1FE05AFF4F80
:100BA000008111E082E0F601608141E00E941901BC
:100BB000112359F40894E11CF11C0894C11CD11CA8
:100BC000F4E0EF16F10409F0A2CF802FDF91CF916E
:100BD0001F910F91FF90EF90DF90CF90BF90AF905B
:100BE000089582E06091700041E021E00E945B0086
:100BF00082E06091710041E021E00E945B0082E0B0
:100C00006091720041E021E00E945B0082E060910F
:100C1000730041E021E00E945B0082E0609174007B
:100C200040E021E00E945B0082E06091750040E0BE
:100C300021E00E945B0082E06091760040E021E0CC
:100C40000E945B0082E06091770040E021E00E941A
:100C50005B00089580E060E041E00E94190180E0BF
:100C600061E040E00E94190180E197E228EC30E069
:100C7000F9013197F1F70197D9F780E060E040E0A2
:100C80000E94190180E061E041E00E94190180E1C9
:100C900097E228EC30E0F9013197F1F70197D9F7A5
:100CA000089580E060E041E020E00E945B0080E089
:100CB00061E041E020E00E945B000895CF92DF9266
:100CC000EF92FF920F931F93CF93DF932BE0660F6A
:100CD000771F881F991F2A95D1F728E631E040E059
:100CE00050E00E94421A79018A0192E01695079518
:100CF000F794E7949A95D1F7C0E0D0E080E2C82E4F
:100D00008EE4D82E5DC080E060E041E00E941901D1
:100D100080E061E040E00E94190180E062E041E093
:100D20000E94190180E063E041E00E941901C601C0
:100D30000197F1F780E060E041E00E94190180E056
:100D400061E041E00E94190180E062E040E00E9421
:100D5000190180E063E041E00E941901C60101979A
:100D6000F1F780E060E041E00E94190180E061E07D
:100D700041E00E94190180E062E041E00E94190117
:100D800080E063E040E00E941901C6010197F1F79D
:100D900080E060E040E00E94190180E061E041E015
:100DA0000E94190180E062E041E00E94190180E0A8
:100DB00063E041E00E941901C6010197F1F7219615
:100DC000CE01A0E0B0E08E159F05A007B10708F4A2
:100DD0009ACFDF91CF911F910F91FF90EF90DF900D
:100DE000CF9008950F931F9380E060E041E00E9450
:100DF000190180E061E040E00E94190180E062E0BA
:100E000041E00E94190180E063E041E00E94190185
:100E100000E21EE4C8010197F1F780E060E041E0E4
:100E20000E94190180E061E041E00E94190180E028
:100E300062E040E00E94190180E063E041E00E942E
:100E40001901C8010197F1F780E060E041E00E94DC
:100E5000190180E061E041E00E94190180E062E058
:100E600041E00E94190180E063E040E00E94190126
:100E7000C8010197F1F780E060E040E00E941901AD
:100E800080E061E041E00E94190180E062E041E021
:100E90000E94190180E063E041E00E941901C8014D
:100EA0000197F1F71F910F91089580E060E041E014
:100EB00020E00E945B0080E061E041E020E00E94D1
:100EC0005B0080E062E041E020E00E945B0080E0A7
:100ED00063E041E020E00E945B00089597B19F73BA
:100EE00097B997B16295660F660F607C962B97B99C
:100EF00035983D98349A96B1987F96B996B1982BCB
:100F000096B9379A089597B1907797B997B1982B7A
:100F100097B9369A86B126B190E08F7B30E0821780
:100F20009307C1F7349A24B145B1942F80E030E0A3
:100F3000282B392BC901089597B1907E97B997B1A5
:100F4000982B97B9369A089586B126B190E08F7E96
:100F500030E08217930719F420E030E008C034B184
:100F600025B1922F80E0232F30E0282B392BC901A7
:100F70000895339A0895339808959093A801809323
:100F8000A70108951F920F920FB60F9211242F936D
:100F90003F934F935F936F937F938F939F93AF9301
:100FA000BF93EF93FF93E091A701F091A8013097D1
:100FB00009F00995FF91EF91BF91AF919F918F91AA
:100FC0007F916F915F914F913F912F910F900FBE45
:100FD0000F901F9018958130910579F0813091051F
:100FE00030F08230910591F00397F9F415C083B782
:100FF000806883BF83B78F7B05C083B78F7783BF3C
:1010000083B7806483BF83B7877F0EC083B7806850
:1010100083BF83B78F7B05C083B78F7783BF83B7C9
:10102000806483BF83B7886083BF83B7887C83BFB6
:1010300083B7862B4295407F842B83BF089583B767
:10104000887F83BF089589B7816089BF089589B774
:101050008E7F89BF089589B7826089BF089589B757
:101060008D7F89BF089582BF08958CBF08959093A6
:10107000AC018093AB0108959093AA018093A901DC
:1010800008951F920F920FB60F9211242F933F9342
:101090004F935F936F937F938F939F93AF93BF9380
:1010A000EF93FF93E091AB01F091AC01309709F021
:1010B0000995FF91EF91BF91AF919F918F917F9192
:1010C0006F915F914F913F912F910F900FBE0F90B5
:1010D0001F9018951F920F920FB60F9211242F9305
:1010E0003F934F935F936F937F938F939F93AF93B0
:1010F000BF93EF93FF93E091A901F091AA0130977C
:1011000009F00995FF91EF91BF91AF919F918F9158
:101110007F916F915F914F913F912F910F900FBEF3
:101120000F901F9018958730910509F460C08830A2
:101130009105A8F48330910509F43DC084309105F0
:1011400030F48130910559F1029778F523C085304C
:10115000910509F440C0069708F043C037C08B30B2
:10116000910509F461C08C30910540F489309105F6
:1011700009F44EC00A9708F051C045C08D30910562
:1011800009F463C08D30910508F45AC00E9709F038
:101190006EC061C08FB58C7F8FBD8FB511C08FB50C
:1011A0008C7F8FBD8FB581600BC08FB58C7F8FBD5D
:1011B0008FB5826005C08FB58C7F8FBD8FB5836082
:1011C0008FBD8EB5877E8EBD8EB550C08FB58C7F9E
:1011D0008FBD8FB511C08FB58C7F8FBD8FB58160EE
:1011E0000BC08FB58C7F8FBD8FB5826005C08FB56A
:1011F0008C7F8FBD8FB583608FBD8EB5877E8EBD92
:101200008EB5886033C08FB58C7F8FBD8FB511C010
:101210008FB58C7F8FBD8FB581600BC08FB58C7FF4
:101220008FBD8FB5826005C08FB58C7F8FBD8FB5A8
:1012300083608FBD8EB5877E8EBD8EB5806116C0F2
:101240008FB58C7F8FBD8FB50BC08FB58C7F8FBD59
:101250008FB5826005C08FB58C7F8FBD8FB58360E1
:101260008FBD8EB5877E8EBD8EB588618EBD8FB5E4
:101270008F708FBD8FB54295440F440F407C482B33
:101280002295207F422B4FBD8EB5887F8EBD8EB5B7
:10129000862B8EBD08958EB5887F8EBD08952CB5A2
:1012A0003DB5C90108951DBC1CBC0895009721F4EB
:1012B0008EB580648EBD0895019719F48EB58F7B2D
:1012C0008EBD089526B537B5C901089589B78062E6
:1012D00089BF089589B78F7D89BF089589B78061D7
:1012E00089BF089589B78F7E89BF089589B78860BF
:1012F00089BF089589B7877F89BF089589B78460BA
:1013000089BF089589B78B7F89BF089597BD86BD32
:1013100008959BBD8ABD089599BD88BD08959DBD62
:101320008CBD08959093B4018093B3010895909378
:10133000B2018093B10108959093B0018093AF0101
:1013400008959093AE018093AD0108951F920F927E
:101350000FB60F9211242F933F934F935F936F9388
:101360007F938F939F93AF93BF93EF93FF93E091FE
:10137000B301F091B401309709F00995FF91EF9115
:10138000BF91AF919F918F917F916F915F914F919D
:101390003F912F910F900FBE0F901F9018951F92A5
:1013A0000F920FB60F9211242F933F934F935F9399
:1013B0006F937F938F939F93AF93BF93EF93FF931D
:1013C000E091B101F091B201309709F00995FF91D8
:1013D000EF91BF91AF919F918F917F916F915F91AD
:1013E0004F913F912F910F900FBE0F901F90189526
:1013F0001F920F920FB60F9211242F933F934F938A
:101400005F936F937F938F939F93AF93BF93EF936C
:10141000FF93E091AF01F091B001309709F0099589
:10142000FF91EF91BF91AF919F918F917F916F91BC
:101430005F914F913F912F910F900FBE0F901F9092
:1014400018951F920F920FB60F9211242F933F936E
:101450004F935F936F937F938F939F93AF93BF93BC
:10146000EF93FF93E091AD01F091AE01309709F059
:101470000995FF91EF91BF91AF919F918F917F91CE
:101480006F915F914F913F912F910F900FBE0F90F1
:101490001F901895A0E0B0E0BC01CD0128EE33E02C
:1014A00040E050E00E94031A2FEF33E040E050E0AC
:1014B0000E94421ADA01C90189519C4F0E94890990
:1014C00008952F923F924F925F926F927F928F92E8
:1014D0009F92AF92BF92CF92DF92EF92FF920F93C3
:1014E0001F93DF93CF93CDB7DEB727970FB6F8944E
:1014F000DEBF0FBECDBF882E282F30E040E050E089
:1015000060E070E080E090E002E00E940F13122F94
:10151000632E442E252E69837A838B839C8305E07A
:101520000E940F13A32FB42F552E362E7D838E834A
:101530009F83722E711AF1E0271508F0F0E03A2F20
:101540003619E1E0A31708F0E0E0932F9F1B21E09C
:10155000391708F020E0E22B4B2F441931E0B41783
:1015600008F030E0042F0E1B21E0401708F020E0C7
:10157000322B552D521941E0551608F040E0152F39
:10158000131B21E0511708F020E0422B632D298125
:10159000621B31E0361608F030E0B62FB41B21E0B4
:1015A0006B1708F020E0322B7D818A81781B41E0A7
:1015B000ED81E71708F040E0A72FA31B21E07A1781
:1015C00008F020E0422B8E81FB818F1B21E03E81C1
:1015D000381708F020E0682E641A31E0861508F00C
:1015E00030E0232B5F808C81581A521A272D280D4A
:1015F00031E0271508F030E0390F41E0391708F0E5
:1016000040E0400F51E0401708F050E0510F61E01A
:10161000511708F060E06B0F71E06B1708F070E095
:101620007A0F81E07A1708F080E0860D91E0861548
:1016300008F090E0950D03E00E940F13E4EBAE2E4E
:10164000BB24CC24DD24EE24FF2400E010E00E9423
:101650008E135901E7EEF3E0AE0EBF1EC5010E94E6
:10166000890927960FB6F894DEBF0FBECDBFCF9184
:10167000DF911F910F91FF90EF90DF90CF90BF907F
:10168000AF909F908F907F906F905F904F903F9022
:101690002F9008958FE19EE40E9486098DE090E0EE
:1016A00062E070E042E050E022E030E00E94930807
:1016B00008958130910561F08130910530F08230DC
:1016C000910561F0039799F40CC085B58F7B02C03A
:1016D00085B5806485BD85B5877F08C085B58F7B5E
:1016E00002C085B5806485BD85B5886085BD85B53A
:1016F000887C85BD85B56295607F642B862B85BD12
:10170000089584BD089583BD089589B7806489BF15
:10171000089589B78F7B89BF089589B7806889BF8D
:10172000089589B78F7789BF08959093B801809302
:10173000B70108959093B6018093B50108951F9263
:101740000F920FB60F9211242F933F934F935F93F5
:101750006F937F938F939F93AF93BF93EF93FF9379
:10176000E091B701F091B801309709F00995FF9128
:10177000EF91BF91AF919F918F917F916F915F9109
:101780004F913F912F910F900FBE0F901F90189582
:101790001F920F920FB60F9211242F933F934F93E6
:1017A0005F936F937F938F939F93AF93BF93EF93C9
:1017B000FF93E091B501F091B601309709F00995DA
:1017C000FF91EF91BF91AF919F918F917F916F9119
:1017D0005F914F913F912F910F900FBE0F901F90EF
:1017E000189581B5887F81BD81B5876081BD81B540
:1017F000886081BD81B58F7E81BD089581B5877F69
:1018000081BD81B5806181BD08950F931F938B01C8
:1018100001970E948909C8010E9497090E946E09D8
:1018200084E090E062E070E040E050E020E030E0F2
:101830000E9493081F910F9108950F931F938B019E
:1018400028EE33E0AC01429FC001439F900D529FB0
:10185000900D112401970E948909C8010E949709DF
:101860000E946E0984E090E062E070E040E050E0A9
:1018700020E030E00E9493081F910F9108958DE0C1
:1018800090E062E070E042E050E022E030E00E9450
:1018900093080895AF92BF92CF92DF92EF92FF929A
:1018A0000F931F93CF93DF935C01EB0180E090E0F7
:1018B0000E948F0983EE9CE00E94920980E090E0F4
:1018C0000E9456090E9466091092B9018091B901DF
:1018D0008330E0F34091BE015091BF016091C0019F
:1018E0007091C1018091BA019091BB01A091BC019E
:1018F000B091BD01481B590BC090C201D090C301EB
:10190000E090C401F090C5018091BE019091BF01AB
:10191000A091C001B091C1018A01081B190B0C0DE7
:101920001D1D84E690E09C01429FC001439F900DE5
:10193000529F900D1124B8010E942E1A688320E056
:1019400030E060E472E48FE090E0A90198010E9429
:10195000421AF5012083318342835383DF91CF9173
:101960001F910F91FF90EF90DF90CF90BF90AF90BD
:101970000895EF92FF920F931F937C0185E6E8167E
:10198000F104E0F40E94620900E010E09C012F5F86
:101990003F4F40E050E0C801B7010E94031A24E61F
:1019A00030E040E050E00E94421AC901232B11F0C0
:1019B000019702C080E090E00E9489091F910F9179
:1019C000FF90EF9008958091B901882391F40E94CF
:1019D0006209A0E0B0E08093BA019093BB01A093AC
:1019E000BC01B093BD0181E090E00E94560981E006
:1019F00015C08091B9018130A1F40E946209A0E074
:101A0000B0E08093BE019093BF01A093C001B0935A
:101A1000C10180E090E00E94560982E08093B90104
:101A200008958091B901823089F40E946209A0E092
:101A3000B0E08093C2019093C301A093C401B0931E
:101A4000C5010E946A0983E08093B9010895009757
:101A5000A1F09C0140E050E060E472E48FE090E08F
:101A60000E94641AC901232B21F001970E94860964
:101A7000089580E090E00E9486090895BC010097D7
:101A800081F088EE93E00E942E1ACB01611571055A
:101A900021F001970E948609089580E090E00E945D
:101AA00086090895FC018091C601823011F080E022
:101AB00008958091C7019091C801A091C901B0918A
:101AC000CA012091CB013091CC014091CD015091C0
:101AD000CE014091CF015091D001821B930B6AE35C
:101AE00070E00E942E1A718360831092C6011092DA
:101AF000D0011092CF0181E008958091CF019091A3
:101B0000D00101969093D0018093CF0108950F9357
:101B10001F93182F062F8091C601882391F4812FDF
:101B200041E00E9419018AE18A95F1F7812F602F27
:101B300040E00E94190180E090E00E9456090E9456
:101B400066091F910F9108950F931F93182F062F69
:101B50001092D0011092CF011092C60141E00E9474
:101B600019018AE18A95F1F7812F602F40E00E94E8
:101B7000190180E090E00E9456090E946609809158
:101B8000C6018230E0F38091C7019091C801A09115
:101B9000C901B091CA012091CB013091CC01409193
:101BA000CD015091CE014091CF015091D001821BC7
:101BB000930B6AE370E00E942E1ACB011F910F91E4
:101BC000089541E020E00E945B0083E066E040E091
:101BD00020E00E945B0080E09EE00E9492098DE779
:101BE0009DE00E94A1090E947E0980E090E062E0F1
:101BF00070E040E050E020E030E00E94930808955B
:101C00008091C6018823C1F41092D0011092CF01B7
:101C10000E946209A0E0B0E08093CB019093CC01D8
:101C2000A093CD01B093CE0181E08093C60181E005
:101C300090E00E94560908958091C601813089F490
:101C40000E946209A0E0B0E08093C7019093C801B0
:101C5000A093C901B093CA0182E08093C6010E949B
:101C60006A09089583E389B910BC59985298549A27
:101C7000539A86E880BD0895482F8BB12BB190E030
:101C80008F7D30E082179307C1F34CB908958BB173
:101C90002BB190E08F7730E082179307C1F38CB1BE
:101CA00008958CB908958CB10895FC018BB12BB1C6
:101CB00090E08F7730E08217930711F480E0089569
:101CC0008CB1808381E00895579A089557980895BC
:101CD000569A089556980895559A089555980895D6
:101CE0009093D6018093D50108959093D401809369
:101CF000D30108959093D2018093D10108951F924A
:101D00000F920FB60F9211242F933F934F935F932F
:101D10006F937F938F939F93AF93BF93EF93FF93B3
:101D2000E091D501F091D601309709F00995FF9126
:101D3000EF91BF91AF919F918F917F916F915F9143
:101D40004F913F912F910F900FBE0F901F901895BC
:101D50001F920F920FB60F9211242F933F934F9320
:101D60005F936F937F938F939F93AF93BF93EF9303
:101D7000FF93E091D301F091D401309709F00995D8
:101D8000FF91EF91BF91AF919F918F917F916F9153
:101D90005F914F913F912F910F900FBE0F901F9029
:101DA00018951F920F920FB60F9211242F933F9305
:101DB0004F935F936F937F938F939F93AF93BF9353
:101DC000EF93FF93E091D101F091D201309709F0A8
:101DD0000995FF91EF91BF91AF919F918F917F9165
:101DE0006F915F914F913F912F910F900FBE0F9088
:101DF0001F9018950F931F938C018AE09FE00E941B
:101E0000700E0E94640E1093DB010093DA011F91A3
:101E10000F9108950F931F938091D7010091DA01DC
:101E20001091DB01080F111D0E94530EF8018083F1
:101E30009091D701E091DA01F091DB01E90FF11DFA
:101E40008081833221F410821092D70103C09F5FFA
:101E50009093D7011F910F9108950F931F938C01B9
:101E600081E49FE00E947A0E0E94680EF801808152
:101E70000E94510E1093D9010093D8011F910F9128
:101E8000089580917800E091D801F091D901E80F90
:101E9000F11D8081882331F00E94510E80917800DD
:101EA0008F5F01C081E08093780008951F93CF93E6
:101EB000DF93EC010E94470E888310E007C01F5F8C
:101EC0000E94470EFE01E10FF11D8083FE01E10F2C
:101ED000F11D8081833299F71082DF91CF911F919C
:101EE0000895CF93DF93EC0103C00E943C0E21962E
:101EF00088818823D1F7DF91CF9108956C9A6A9AEF
:101F00006B986D9A689A699870986E9A08958FB9CF
:101F10008EB12EB190E08F7730E082179307C1F336
:101F20008FB108956F9A08956F9808959093DD0189
:101F30008093DC0108951F920F920FB60F92112427
:101F40002F933F934F935F936F937F938F939F93C1
:101F5000AF93BF93EF93FF93E091DC01F091DD012C
:101F6000309709F00995FF91EF91BF91AF919F9143
:101F70008F917F916F915F914F913F912F910F9032
:101F80000FBE0F901F90189596B7906496BF92E081
:101F900090B911B8880F82B986B7846086BF08955A
:101FA00084EA86BF86B726B790E08F7730E0821745
:101FB0009307C1F381B120E030E0887F883011F0D1
:101FC00021E030E0C9010895880F83B984E886BF15
:101FD00086B726B790E08F7730E082179307C1F37A
:101FE00081B1887F883119F420E030E002C022E01E
:101FF00030E0C901089583B984E886BF86B726B763
:1020000090E08F7730E082179307C1F381B1887F2A
:10201000883219F420E030E002C023E030E0C9014A
:10202000089584EA86BF86B726B790E08F7730E0C0
:1020300082179307C1F381B1887F803119F420E0C2
:1020400030E002C025E030E0C9010895880F8160CA
:1020500083B984E886BF86B726B790E08F7730E0F3
:1020600082179307C1F381B1887F803419F420E08F
:1020700030E002C026E030E0C9010895FB018295FE
:10208000880F880F807C846886BF86B726B790E06B
:102090008F7730E082179307C1F383B1808308956F
:1020A00084E986BF08959093DF018093DE0108954F
:1020B00086B7816086BF089586B78E7F86BF0895F4
:1020C0001F920F920FB60F9211242F933F934F93AD
:1020D0005F936F937F938F939F93AF93BF93EF9390
:1020E000FF93E091DE01F091DF01309709F009954F
:1020F000FF91EF91BF91AF919F918F917F916F91E0
:102100005F914F913F912F910F900FBE0F901F90B5
:102110001895DF92EF92FF920F931F93CF93DF9367
:102120007C01EB010E94111088E60E94E40F83E01D
:102130000E94FB0F0E94111088E60E942610082FB3
:10214000D92E81E0B7010E943E10F7018081282F2F
:1021500022952F709AE0299F900111248F70820F91
:1021600080838430E1F0853038F4823081F0833030
:1021700090F4813021F507C08630C9F0863098F0A0
:102180008730E9F418C0CE0169E770E01BC0CE01CA
:102190006DE770E017C0CE0161E870E013C0CE01BA
:1021A00065E870E00FC0CE0169E870E00BC0CE01B9
:1021B0006DE870E007C0CE0161E970E003C0CE01B8
:1021C00065E970E00E94B61AB7016F5F7F4F81E04A
:1021D0000E943E10F7012181822F82958F701AE0B4
:1021E000819FC00111242F70280F2183B7016E5FDA
:1021F0007F4F81E00E943E10F7012281822F82955D
:102200008F70819FC00111242F70280F2283B70186
:102210006D5F7F4F80E00E943E10F7012381822F87
:1022200082958F70819FC00111242F70280F238306
:102230000E945010802F9D2DDF91CF911F910F9103
:10224000FF90EF90DF900895DF92EF92FF920F934F
:102250001F93CF93DF93EC017B010E94111088E65E
:102260000E94E40F80E00E94FB0F0E94111088E69C
:102270000E942610082FD92E81E0BE010E943E1038
:10228000BE016F5F7F4F81E00E943E10BE016E5F16
:102290007F4F80E00E943E100E9450101A81212F33
:1022A00030E0C9018F7B82179307B1F0A9014F7D00
:1022B0001B824217530711F081E08B8342175307AB
:1022C00021F0C70169E970E003C0C7016CE970E063
:1022D0000E94B61A1F7902C082E08B832881822F68
:1022E00082958F703AE0839FC00111242F70280FD0
:1022F00028832981822F82958F70839FC0011124AA
:102300002F70280F2983812F82958F70839FC001A2
:1023100011241F70180F1A83802F9D2DDF91CF91EC
:102320001F910F91FF90EF90DF9008950F931F93EF
:1023300082309105A1F08330910528F4009749F08F
:10234000019749F40AC08330910559F0049719F4B4
:102350000AC010E109C010E007C011E105C012E198
:1023600003C013E101C010E80E94111088E60E942A
:10237000E40F87E00E94FB0F812F0E94FB0F182FB4
:10238000092F0E945010812F902F1F910F910895B7
:102390000F931F938C010E94D00F88E60E94E40FD8
:1023A00083E00E94FB0FF80180810E94FB0FF8017F
:1023B00081810E94FB0FF80182810E94FB0FF801CE
:1023C00083810E94FB0F182F092F0E945010812F2C
:1023D000902F1F910F9108950F931F93CF93DF9329
:1023E000EC01FB012A816230710568F5922F92950C
:1023F0009F708AE0989F402D11242F70420F21F486
:10240000E1E0F0E04CE007C04C3019F04D3018F03E
:102410004C50E0E0F0E0842F6AE00E94221A282F5E
:1024200030E084E0220F331F8A95E1F7842F0E9469
:10243000221A922B892F8064EF2B11F4906602C030
:10244000982F9F7D9A830E94D00F88E60E94E40F08
:1024500080E00E94FB0F88810E94FB0F89810E940F
:10246000FB0F8A810E94FB0F182F092F0E9450102A
:10247000812F902FDF91CF911F910F9108950E948E
:10248000501080E29EE40197F1F708959C01862F99
:10249000B9010E943E1008950E94FB0F0895FF921B
:1024A0000F931F93082FF62E172F0E94D00F9C0119
:1024B000009771F41065000F000F802F812B0E9490
:1024C000E40F9C01009721F48F2D0E94FB0F9C01CB
:1024D000C9011F910F91FF900895FF920F931F93D1
:1024E000082FF62E172F0E94D00F9C010097C9F4D9
:1024F0001065000F000F012B802F0E94E40F9C013C
:10250000009779F48F2D0E94FB0F9C01009749F4EE
:102510000E9411109C01009721F4802F0E94261028
:102520009C01C9011F910F91FF900895582F492FC9
:102530008CB32CB390E08D7F30E082179307C1F706
:1025400043704FBB5EBBE29AE19A0895582F492F22
:102550008CB32CB390E08D7F30E082179307C1F7E6
:1025600043704FBB5EBBE09A8DB308959093E10139
:102570008093E00108951F920F920FB60F921124DD
:102580002F933F934F935F936F937F938F939F937B
:10259000AF93BF93EF93FF93E091E001F091E101DE
:1025A000309709F00995FF91EF91BF91AF919F91FD
:1025B0008F917F916F915F914F913F912F910F90EC
:1025C0000FBE0F901F901895089582EE91E00E9423
:1025D000EC128093E6010895FC0120813181428153
:1025E0005381273C3105410551052CF010821182A1
:1025F000128213820CC02F5F3F4F4F4F5F4F2083DB
:10260000318342835383215030404040504080E02A
:10261000243631054105510508F481E00895EF9213
:10262000FF920F93DF93CF93CDB7DEB760970FB6CE
:10263000F894DEBF0FBECDBFA82F002309F461C000
:102640007E010894E11CF11C88E0F70111928A9543
:10265000E9F729833A834B835C836D837E83AF8361
:10266000988780E2801BE82FFF27E7FDF0954981DE
:102670005A816B817C81181684F019861A861B8614
:102680001C86882799278E1B9F0B04C0440F551F5B
:10269000661F771F8A95D2F728C0202F332727FD82
:1026A0003095DB01CA01022E04C0880F991FAA1FB2
:1026B000BB1F0A94D2F789879A87AB87BC8704C06F
:1026C0007695679557954795EA95D2F78D819E81C6
:1026D000AF81B88504C0880F991FAA1FBB1F2A9518
:1026E000D2F7482B592B6A2B7B2B4D875E876F8740
:1026F000788B29853A854B855C856D857E85AF8590
:1027000098898A2F60960FB6F894DEBF0FBECDBFB2
:10271000CF91DF910F91FF90EF900895AEE5B0E07B
:10272000E4E9F3E10C947F1AA8E04E010894811CBF
:10273000911CF4016A2E11926A94E9F729833A8375
:102740004B835C836D837E838F839887CE0109964C
:10275000FC011192AA95E9F7A986BA86CB86DC8698
:10276000ED86FE860F87188B29843A844B845C841F
:10277000ED84FE840F85188969807A808B809C8027
:102780006DA67EA68FA698AA6D807E808F80988485
:10279000E114F1040105110509F0B3C362147304D7
:1027A0008404950408F03DC100E0201600E03006E6
:1027B00001E0400600E0500688F41FEF21163104C6
:1027C0004104510439F030F048E0E42EF12C012DA1
:1027D000112D18C0EE24FF24870114C020E022161A
:1027E00020E0320620E0420621E0520630F038E1D7
:1027F000E32EF12C012D112D05C020E1E22EF12C4C
:10280000012D112DD201C1010E2C04C0B695A79542
:10281000979587950A94D2F781569F4FDC012C91AA
:1028200080E290E0A0E0B0E08E199F09A00BB10B10
:102830007C018D01E21AF10801091109E114F1048A
:1028400001051105A1F10E2C04C0220C331C441CFF
:10285000551C0A94D2F7A40193010E2C04C0220F38
:10286000331F441F551F0A94D2F780E290E08E195F
:102870009F096DA47EA48FA498A804C09694879401
:10288000779467948A95D2F7622A732A842A952AC4
:10289000ADA4BEA4CFA4D8A804C0AA0CBB1CCC1C59
:1028A000DD1CEA94D2F7ADA6BEA6CFA6D8AA6201D7
:1028B000EE24FF24CDAADEAAEFAAF8AE9201810190
:1028C0002070307009AF1AAF2BAF3CAFC401B30119
:1028D000A70196010E94421A7B018C01C401B30139
:1028E0002DA93EA94FA958AD0E94421AC901DA018B
:1028F0003C014D01C401B30129AD3AAD4BAD5CAD16
:102900000E94031A9B01AC018701FF24EE24ADA4B1
:10291000BEA4CFA4D8A8C601AA27BB275701680127
:10292000A82AB92ACA2ADB2AA216B306C406D506E3
:10293000E0F408946108710881089108A20CB31CA6
:10294000C41CD51CA214B304C404D50470F0A21690
:10295000B306C406D50648F40894610871088108D6
:102960009108A20CB31CC41CD51CA21AB30AC40A39
:10297000D50AC601B5012DA93EA94FA958AD0E949F
:10298000421A7B018C01C601B5012DA93EA94FA9B0
:1029900058AD0E94421AC901DA015C016D01C601FD
:1029A000B50129AD3AAD4BAD5CAD0E94031A9B0158
:1029B000AC018701FF24EE248DA59EA5AFA5B8A983
:1029C000A070B070E82AF92A0A2B1B2BE216F30636
:1029D00004071507C0F40894A108B108C108D1087C
:1029E000E20CF31C041D151DE214F3040405150587
:1029F00050F0E216F3060407150728F40894A1081E
:102A0000B108C108D108D30199278827860175012B
:102A1000E82AF92A0A2B1B2BE9AAFAAA0BAB1CAB52
:102A2000CFC4211431044104510471F461E070E019
:102A300080E090E020E030E040E050E00E94421A68
:102A4000C901DA011C012D0100E0201600E030066A
:102A500001E0400600E0500688F41FEF2116310423
:102A60004104510431F028F048E050E060E070E0AB
:102A700017C040E050E060E070E012C020E0221695
:102A800020E0320620E0420621E0520628F048E12C
:102A900050E060E070E004C040E150E060E070E0D1
:102AA000D201C101042E04C0B695A79597958795CC
:102AB0000A94D2F781569F4FDC012C91E0E2EE2E72
:102AC000F12C012D112DD801C701841B950BA60BEC
:102AD000B70B821B9109A109B1090097A105B105A6
:102AE00061F464015301A218B308C408D50831E0A9
:102AF000632E712C812C912C1EC16F968FAF6F9716
:102B0000082E04C0220C331C441C551C0A94D2F716
:102B1000EE2DE81B640153010E2E04C0D694C79419
:102B2000B794A7940A94D2F7A40193016F960FACBF
:102B30006F9704C0220F331F441F551F0A94D2F70A
:102B40006DA47EA48FA498A80E2E04C0969487949A
:102B5000779467940A94D2F784017301E22AF32AE6
:102B6000042B152BE9A6FAA60BA71CA73201882473
:102B70009924920181012070307021960CAF1DAF15
:102B80002EAF3FAF2197C601B501A40193010E946A
:102B9000421A7B018C01C601B501A40193010E9478
:102BA000421AC901DA0125968CAF9DAFAEAFBFAF17
:102BB0002597BC01CD0121962CAD3DAD4EAD5FAD4D
:102BC00021970E94031A9B01AC018701FF24EE2488
:102BD000A9A4BAA4CBA4DCA4C601AA27BB275C0184
:102BE0006D01AE28BF28C02AD12AA216B306C4069A
:102BF000D50660F525966CAD7DAD8EAD9FAD259764
:102C0000615070408040904025966CAF7DAF8EAF94
:102C10009FAF2597A20CB31CC41CD51CA214B304EF
:102C2000C404D50498F0A216B306C406D50670F401
:102C3000615070408040904025966CAF7DAF8EAF64
:102C40009FAF2597A20CB31CC41CD51CA21AB30AB3
:102C5000C40AD50AC601B501A40193010E94421A13
:102C60007B018C01C601B501A40193010E94421AA7
:102C7000C901DA013C014D01C401B30121962CAD1B
:102C80003DAD4EAD5FAD21970E94031A9B01AC0193
:102C90008701FF24EE2489A59AA5ABA5BCA5A07049
:102CA000B07057016801A82AB92ACA2ADB2AA216DD
:102CB000B306C406D506E0F40894610871088108DB
:102CC0009108A20CB31CC41CD51CA214B304C404E8
:102CD000D50470F0A216B306C406D50648F40894CD
:102CE0006108710881089108A20CB31CC41CD51C92
:102CF0008DA59EA5AFA5B8A96F960FAC6F9704C020
:102D0000880F991FAA1FBB1F0A94D2F78DA79EA7F1
:102D1000AFA7B8ABA21AB30AC40AD50A2596ECAC81
:102D2000FDAC0EAD1FAD2597D70199278827682ADE
:102D3000792A8A2A9B2A82012227332729960CAFD7
:102D40001DAF2EAF3FAF2997A20191014070507087
:102D50002D962CAF3DAF4EAF5FAF2D97C601B5019D
:102D600029962CAD3DAD4EAD5FAD29970E94421A1C
:102D70007B018C01C601B50129962CAD3DAD4EAD50
:102D80005FAD29970E94421AC901DA0161968CAFA2
:102D90009DAFAEAFBFAF6197BC01CD012D962CADFD
:102DA0003DAD4EAD5FAD2D970E94031A9B01AC0166
:102DB0008701FF24EE24ADA4BEA4CFA4D8A8C601E9
:102DC000AA27BB2757016801A82AB92ACA2ADB2AE1
:102DD000A216B306C406D50660F561966CAD7DAD4E
:102DE0008EAD9FAD6197615070408040904061967C
:102DF0006CAF7DAF8EAF9FAF6197A20CB31CC41CAC
:102E0000D51CA214B304C404D50498F0A216B306CA
:102E1000C406D50670F461507040804090406196C1
:102E20006CAF7DAF8EAF9FAF6197A20CB31CC41C7B
:102E3000D51CA21AB30AC40AD50AC601B50129963F
:102E40002CAD3DAD4EAD5FAD29970E94421A7B017E
:102E50008C01C601B50129962CAD3DAD4EAD5FADDF
:102E600029970E94421AC901DA015C016D01C6016D
:102E7000B5012D962CAD3DAD4EAD5FAD2D970E94A9
:102E8000031A9B01AC018701FF24EE248DA59EA5AA
:102E9000AFA5B8A9A070B070E82AF92A0A2B1B2B9D
:102EA000E216F30604071507C0F40894A108B10858
:102EB000C108D108E20CF31C041D151DE214F30433
:102EC0000405150550F0E216F3060407150728F46B
:102ED0000894A108B108C108D1086196ECACFDAC1A
:102EE0000EAD1FAD6197D7019927882796018501FF
:102EF000082B192B2A2B3B2B09AB1AAB2BAB3CAB6A
:102F000062C26E147F048006910608F451C220E06C
:102F1000E21620E0F20621E0020720E0120788F422
:102F20003FEFE316F1040105110531F028F048E008
:102F300050E060E070E017C040E050E060E070E01A
:102F400012C040E0E41640E0F40640E0040741E02F
:102F5000140728F048E150E060E070E004C040E170
:102F600050E060E070E0D801C701042E04C0B695BF
:102F7000A795979587950A94D2F781569F4FDC01C4
:102F80002C9130E2A32EB12CC12CD12CD601C5013D
:102F9000841B950BA60BB70B821B9109A109B109E4
:102FA0000097A105B10589F4E614F7040805190591
:102FB00008F4F2C16DA47EA48FA498A862147304CF
:102FC0008404950408F0E8C1F3C16E968FAF6E9744
:102FD000082E04C0EE0CFF1C001F111F0A94D2F72C
:102FE0006A2D681BD201C101062E04C0B695A795B3
:102FF000979587950A94D2F75C016D01AE28BF289A
:10300000C02AD12AADA2BEA2CFA2D8A67201610168
:103010006E960FAC6E9704C0CC0CDD1CEE1CFF1C32
:103020000A94D2F7C9A2DAA2EBA2FCA2640153016E
:10303000062E04C0D694C794B794A7940A94D2F7E6
:10304000D401C3016E960FAC6E9704C0880F991F10
:10305000AA1FBB1F0A94D2F7EDA4FEA40FA518A9BE
:1030600004C016950795F794E7946A95D2F737014F
:103070004801682A792A8A2A9B2A6D8E7E8E8F8E35
:1030800098A2EDA0FEA00FA118A5380188249924CC
:10309000980187012070307065960CAF1DAF2EAF80
:1030A0003FAF6597C601B501A40193010E94421A82
:1030B0007B018C01C601B501A40193010E94421A53
:1030C000C901DA011C012D01C201B10165962CADC7
:1030D0003DAD4EAD5FAD65970E94031A9B01AC01FB
:1030E0008701FF24EE24AD8CBE8CCF8CD8A0C60106
:1030F000AA27BB2757016801A82AB92ACA2ADB2AAE
:10310000A216B306C406D50600F5089421083108B6
:1031100041085108EDA0FEA00FA118A5AE0CBF1CE0
:10312000C01ED11EAE14BF04C006D10670F0A21698
:10313000B306C406D50648F40894210831084108AE
:103140005108AE0CBF1CC01ED11EA21AB30AC40A7D
:10315000D50AC601B501A40193010E94421A7B0160
:103160008C01C601B501A40193010E94421AC90154
:10317000DA013C014D01C401B30165962CAD3DADB2
:103180004EAD5FAD65970E94031A9B01AC018701AC
:10319000FF24EE248D8D9E8DAF8DB8A1A070B070F0
:1031A00057016801A82AB92ACA2ADB2AA216B3063F
:1031B000C406D50600F508946108710881089108D5
:1031C0006DA17EA18FA198A5A60EB71EC81ED91EFF
:1031D000A616B706C806D90670F0A216B306C4062E
:1031E000D50648F408946108710881089108A60E74
:1031F000B71EC81ED91ED601C501821B930BA40B96
:10320000B50B898F9A8FAB8FBC8FD10199278827F7
:1032100064015301A82AB92ACA2ADB2AA9AABAAA90
:10322000CBAADCAA860175012FEF3FEF40E050E00A
:10323000E222F32204231523A601662777276D9641
:103240004CAF5DAF6EAF7FAF6D97A9A0BAA0CBA01A
:10325000DCA06FEF7FEF80E090E0A622B722C822CB
:10326000D92289A19AA1ABA1BCA11D014424552456
:10327000C801B701A60195010E94031A69966CAFB7
:103280007DAF8EAF9FAF6997C801B701A2019101D1
:103290000E94031A3B014C016D966CAD7DAD8EAD65
:1032A0009FAD6D97A60195010E94031A7B018C01C9
:1032B0006D966CAD7DAD8EAD9FAD6D97A201910108
:1032C0000E94031A5B016C01A8019701260D371DAE
:1032D000481D591D69966CAC7DAC8EAC9FAC69974E
:1032E000C401AA27BB27280F391F4A1F5B1F2E15B1
:1032F0003F054007510748F4E12CF12C61E0062F0F
:10330000112DAE0CBF1CC01ED11ECA01AA27BB279F
:10331000BC01CD016A0D7B1D8C1D9D1D698C7A8CB5
:103320008B8C9C8C661677068806990640F166158C
:1033300077058805990509F043C0D90199278827A1
:1033400069962CAD3DAD4EAD5FAD69974070507044
:10335000820F931FA41FB51F2DA53EA54FA558A9E9
:103360006E960FAC6E9704C0220F331F441F551F7B
:103370000A94D2F7281739074A075B0708F509A905
:103380001AA92BA93CA9015010402040304009AB9C
:103390001AAB2BAB3CAB14C066247724430121E06D
:1033A00030E040E050E029AB3AAB4BAB5CAB0BC03C
:1033B00066247724430119AA1AAA1BAA1CAA03C0CF
:1033C000662477244301FE01719688E0DF011D9297
:1033D0008A95E9F7A9A8BAA8CBA8DCA8A98ABA8ACD
:1033E000CB8ADC8A6D8A7E8A8F8A988E29A93A894F
:1033F0004B895C89662D7E898F89988DC25ADF4FF3
:10340000E2E10C949B1A629FD001739FF001829FAE
:10341000E00DF11D649FE00DF11D929FF00D839F63
:10342000F00D749FF00D659FF00D9927729FB00D00
:10343000E11DF91F639FB00DE11DF91FBD01CF0113
:1034400011240895991B79E004C0991F961708F07C
:10345000961B881F7A95C9F780950895AA1BBB1BF8
:1034600051E107C0AA1FBB1FA617B70710F0A61B84
:10347000B70B881F991F5A95A9F780959095BC01A5
:10348000CD010895A1E21A2EAA1BBB1BFD010DC0A0
:10349000AA1FBB1FEE1FFF1FA217B307E407F50704
:1034A00020F0A21BB30BE40BF50B661F771F881FE0
:1034B000991F1A9469F760957095809590959B0176
:1034C000AC01BD01CF01089597FB092E05260ED052
:1034D00057FD04D0D7DF0AD0001C38F45095409532
:1034E000309521953F4F4F4F5F4F0895F6F79095D8
:1034F0008095709561957F4F8F4F9F4F08952F92C4
:103500003F924F925F926F927F928F929F92AF9273
:10351000BF92CF92DF92EF92FF920F931F93CF93C0
:10352000DF93CDB7DEB7CA1BDB0B0FB6F894DEBF57
:103530000FBECDBF09942A88398848885F846E847D
:103540007D848C849B84AA84B984C884DF80EE80C7
:10355000FD800C811B81AA81B981CE0FD11D0FB6D0
:10356000F894DEBF0FBECDBFED010895FB01DC0175
:0E35700001900D920020E1F70895F894FFCF2E
:10357E003738392F343536783132332D43303D2BB1
:10358E0000010203040506070153756E004D6F6EB0
:10359E00005475650057656400546875004672697D
:1035AE0000536174002D2D2D00504D00414D000033
:1035BE0001020203030303040404040404040405C7
:1035CE00050505050505050505050505050505069C
:1035DE00060606060606060606060606060606067D
:1035EE00060606060606060606060606060606076C
:1035FE00070707070707070707070707070707074D
:10360E00070707070707070707070707070707073C
:10361E00070707070707070707070707070707072C
:10362E00070707070707070707070707070707081B
:10363E0008080808080808080808080808080808FC
:10364E0008080808080808080808080808080808EC
:10365E0008080808080808080808080808080808DC
:10366E0008080808080808080808080808080808CC
:10367E0008080808080808080808080808080808BC
:10368E0008080808080808080808080808080808AC
:10369E00080808080808080808080808080808089C
:1036AE000808080808080808080808080808080094
:00000001FF
