:020000040800F2
:10000000000002208D2E00083F160008451600084B
:100010004B16000851160008571600080000000093
:10002000000000000000000000000000CD0A0008F1
:100030005D16000800000000890A0008B1090008E8
:10004000DD2E0008DD2E0008DD2E0008DD2E000864
:10005000DD2E0008DD2E0008DD2E0008DD2E000854
:10006000DD2E0008DD2E0008DD2E0008DD2E000844
:10007000DD2E0008DD2E0008DD2E0008DD2E000834
:100080006B160008DD2E0008DD2E0008DD2E0008AE
:10009000DD2E0008DD2E0008DD2E0008DD2E000814
:1000A000DD2E0008DD2E0008DD2E0008DD2E000804
:1000B000DD2E0008DD2E0008DD2E0008DD2E0008F4
:1000C000DD2E0008DD2E0008DD2E0008DD2E0008E4
:1000D000DD2E0008DD2E0008DD2E0008DD2E0008D4
:1000E00025080008DD2E0008DD2E0008DD2E0008A2
:1000F000DD2E0008DD2E0008DD2E0008DD2E0008B4
:10010000DD2E0008DD2E000879160008DD2E00081F
:10011000DD2E0008DD2E0008DD2E0008DD2E000893
:10012000DD2E0008DD2E0008DD2E0008DD2E000883
:10013000DD2E00080000000000000000DD2E000899
:10014000DD2E0008DD2E0008DD2E0008DD2E000863
:10015000DD2E0008DD2E0008DD2E0008DD2E000853
:10016000DD2E0008DD2E0008DD2E0008DD2E000843
:10017000DD2E0008DD2E0008DD2E00080000000046
:1001800000000000DD2E000800000000000000005C
:10019000DD2E00080000000000000000DD2E000839
:1001A000000000000000000000000000DD2E00083C
:1001B000DD2E0008DD2E0008DD2E0008DD2E0008F3
:0401C000DD2E000828
:1001C40053B94AB9002908BF00281CBF4FF0FF31BA
:1001D4004FF0FF3000F00CB8ADF1080C6DE904CE1F
:1001E40002F07CFEDDF804E0DDE9022304B0704790
:1001F400704700BF0348044B834202D0034B03B152
:100204001847704708000020080000200000000084
:100214000548064B1B1AD90F01EBA301491002D064
:10022400034B03B118477047080000200800002062
:100234000000000010B5064C237843B9FFF7DAFF3D
:10024400044B13B10448AFF300800123237010BDA5
:100254000800002000000000F031000808B5054B3C
:100264001BB105490548AFF30080BDE80840FFF71E
:10027400CFBF00BF000000000C000020F0310008D8
:1002840080B483B000AF03463960FB7197F907303F
:10029400002B0ADB3B68DAB20C4997F907301201EC
:1002A400D2B20B4483F800230AE03B68DAB208496F
:1002B400FB7903F00F03043B1201D2B20B441A760C
:1002C40000BF0C37BD465DF8047B704700E100E0D9
:1002D40000ED00E080B584B000AFF860B9607A60EA
:1002E400FB68DBB20F3BDBB25BB279681846FFF701
:1002F400C7FF00BF1037BD4680BD80B485B000AFD6
:10030400EFF310837B607B68FB600123BB60BB68F9
:1003140083F3108800BFFB6818461437BD465DF8A8
:10032400047B704780B500AF0F4B1B785A1CD1B2C9
:100334000D4A1170002B09D00C4B01221A600A4B94
:100344001B78013BDAB2084B1A700BE062B600BFAF
:1003540000F016F972B600BF034B1B78013BDAB20A
:10036400014B1A7080BD00BF28000020240000202B
:1003740080B584B000AF786039602E4BFB604FF0DD
:100384008543BB602C4B00221A702C4B00221A7040
:1003940001DF02F031FD00F0E7FF00F08FFA01F019
:1003A400CBF801F0B1F801F02FF8254B1B680022BF
:1003B4001A6000F027FA00F00DFA72B600BF97ED4C
:1003C400030A00F003FB1E4B1B681B68002B0CBFC9
:1003D40001230023DBB21A46184B1A7062B600BF21
:1003E40062B600BF15E0164B1B681B68002B14BFD8
:1003F40001230023DBB21A460F4B1A700E4B1B78F5
:10040400DBB2002B05D00F4B1B680E4A23F001030F
:1004140013600A4B1B78DBB2002BE4D100F0EAF93D
:1004240000F044FA72B600BF002318461037BD46E8
:1004340080BD00BF17B7D138290000202A00002052
:100444000832000810E000E080B483B000AF034637
:10045400FB7197F90730002B0BDBFB7903F01F02CC
:10046400074997F907305B09012000FA02F241F8C5
:10047400232000BF0C37BD465DF8047B704700BFE6
:1004840000E100E080B483B000AF0346FB7197F94C
:100494000730002B12DBFB7903F01F020A4997F99E
:1004A40007305B09012000FA02F2203341F82320CF
:1004B400BFF34F8F00BFBFF36F8F00BF00BF0C3778
:1004C400BD465DF8047B704700E100E080B483B072
:1004D40000AF7860074B1A687B6813407A689A42C9
:1004E4000CBF01230023DBB218460C37BD465DF870
:1004F400047B7047003C014080B483B000AF786057
:10050400074B5A697B6813407A689A420CBF0123EF
:100514000023DBB218460C37BD465DF8047B7047F8
:10052400003C014080B483B000AF7860044A7B682B
:10053400536100BF0C37BD465DF8047B704700BFB4
:10054400003C014080B483B000AF786039607B68C0
:100554003A689A6100BF0C37BD465DF8047B70476A
:1005640080B483B000AF786039603B681A047B685C
:100574009A6100BF0C37BD465DF8047B70470000EC
:1005840080B582B000AF904B1B8847F6FE72934251
:1005940005D88D4B1B8801339AB28B4B1A808A4B3A
:1005A4009B78002B15D1884B01229A70864B02222E
:1005B400DA70854B00221A80834B03225A71834BD5
:1005C40001221A70814B00225A70804B00229A70CB
:1005D400AAE07D4BDB78012B3ED17B4B9B79002B32
:1005E40015D1794B00221A71774B0222DA70764BBF
:1005F40000221A80744B03225A71744B01221A7020
:10060400724B00225A70714B00229A708CE06E4B30
:100614001B79012B10D16C4B1B8842F20F72934251
:1006240040F28280684B00221A80674B02221A71C2
:10063400664B01221A7077E0634B1B8842F20F72FB
:10064400934271D9604B00221A805F4B01221A71C8
:100654005E4B00221A7067E05B4B9B79002B15D030
:10066400594B00225A71584B0122DA70574B002221
:100674005A70564B00229A70534B00221A80524BE8
:1006840002221A71514B01221A704DE04E4B5B79D4
:10069400012B02D0022B16D02BE04B4B1B8844F6C7
:1006A4001F6293423BD9484B00221A80464B0222D8
:1006B4005A71464B00221A70444B01225A70434B24
:1006C40000229A702BE0404B1B8844F61F62934231
:1006D40027D93D4B00221A803B4B03225A713B4BD6
:1006E40001221A70394B00225A70384B00229A703A
:1006F40017E0354B1B8844F61F62934213D9324BE3
:1007040000221A80304B01225A71304B00221A7099
:100714002E4B00225A702D4B01229A7003E000BF29
:1007240002E000BF00E000BF294B3B60274B5B7831
:10073400002B03D04FF400637B6001E000237B6057
:100744007B6819463868FFF7FDFE7B68DB4303F4DA
:10075400006319463868FFF703FF1D4B3B601B4BD2
:100764009B78002B03D04FF480537B6001E000237F
:100774007B607B6819463868FFF7E4FE7B68DB43DF
:1007840003F4805319463868FFF7EAFE104B3B60C8
:100794000E4B1B78002B03D04FF480637B6001E089
:1007A40000237B607B6819463868FFF7CBFE7B68C3
:1007B400DB4303F4806319463868FFF7D1FE00BFBA
:1007C4000837BD4680BD00BF300000202C0000204B
:1007D4000000024080B400AF044B9A78044B9A7135
:1007E40000BFBD465DF8047B704700BF00000020D9
:1007F4003000002080B400AF00BFBD465DF8047B2C
:100804007047000080B500AF022204493720FFF78B
:1008140061FD2820FFF718FE00BF80BD25080008F1
:1008240080B582B000AFFFF768FD78604FF40050E8
:10083400FFF74CFE0346002B08D04FF40050FFF79F
:100844005BFE0346002B01D0012300E00023002BB4
:1008540015D04FF40050FFF765FE114B1B78DBB247
:10086400012B0CD10F4B9B79002B04D10E4B1A7822
:100874000C4B9A7103E00C4B5A780A4B9A71BFF3F4
:100884006F8F00BFBFF34F8F00BF7B683B603B6837
:1008940083F3108800BF00BF0837BD4680BD00BF8A
:1008A4002A000020300000200000002080B500AFA6
:1008B4002820FFF7E7FD00BF80BD000080B400AF33
:1008C40000BFBD465DF8047B704700BF80B483B0B1
:1008D40000AF03463960FB7197F90730002B0ADB40
:1008E4003B68DAB20C4997F907301201D2B20B44D3
:1008F40083F800230AE03B68DAB20849FB7903F085
:100904000F03043B1201D2B20B441A7600BF0C371A
:10091400BD465DF8047B704700E100E000ED00E0B7
:1009240080B582B000AF78607B68013BB3F1807F13
:1009340001D301230FE00A4A7B68013B53600F2176
:100944004FF0FF30FFF7C2FF054B00229A60044BC3
:1009540007221A60002318460837BD4680BD00BF31
:1009640010E000E080B500AFBFF34F8F00BFBFF3CE
:100974006F8F00BF0B4B1A680B4B1B689A4202D354
:10098400084B00221A60074B1B685A1C05490A6071
:10099400002B05D172B600BFFFF7C4FC62B600BFDE
:1009A40000BF80BD3C0000204000002080B400AFA8
:1009B400054B5B68044A43F08053536000BFBD4657
:1009C4005DF8047B704700BF00ED00E080B584B0A3
:1009D40000AF87ED010A254B1B6807EE903AB8EE8D
:1009E400677AD7ED017A67EE277AFCEEE77A17EE9D
:1009F400903AFB60FB68B3F1807F18D3FB6807EE85
:100A0400903AB8EE677ADFED1A6AC7EE267AFCEE02
:100A1400E77A17EE903A0133164A1360154B1B68B8
:100A2400FA68B2FBF3F31846FFF77AFF05E0114BBF
:100A340000221A60F868FFF773FF0F4B00221A6058
:100A440003214FF0FF30FFF741FF0C4A0C4B1A60B3
:100A54000F216FF00400FFF739FF0F216FF0010041
:100A6400FFF734FF00BF1037BD4680BD04000020EF
:100A7400FFFF7F4B400000203C0000206909000874
:100A840044000020EFF3008001B5EFF3118003B4BC
:100A94001EF0100F08BFB0EE400A0A48006803B405
:100AA40088B004A006904FF0807007906FF00600A5
:100AB4008646704703BC8047BFF36F8F00DFFEE7B5
:100AC40000BF0000440000201EF0100F08BFB0EE6D
:100AD400400A1EF0040F0CBFEFF30880EFF3098007
:100AE400816911F8020C10B101280DD00BE01EF041
:100AF400100F0CBF1AB008B003BC80F3118803BCFC
:100B040080F300880847FEE74EF61451CEF2000148
:100B14000A6842F001020A607047F4E700BF00BFB0
:100B240080B400AF044BDB681B0A03F007031846CC
:100B3400BD465DF8047B704700ED00E080B483B0EF
:100B440000AF0346FB7197F90730002B0BDBFB79F1
:100B540003F01F02074997F907305B09012000FAE7
:100B640002F241F8232000BF0C37BD465DF8047B38
:100B7400704700BF00E100E080B483B000AF0346DB
:100B84003960FB7197F90730002B0ADB3B68DAB256
:100B94000C4997F907301201D2B20B4483F80023B1
:100BA4000AE03B68DAB20849FB7903F00F03043B1F
:100BB4001201D2B20B441A7600BF0C37BD465DF861
:100BC400047B704700E100E000ED00E080B489B0F0
:100BD40000AFF860B9607A60FB6803F00703FB615B
:100BE400FB69C3F10703042B28BF0423BB61FB6922
:100BF4000433062B02D9FB69033B00E000237B612D
:100C04004FF0FF32BB6902FA03F3DA43BB681A40C0
:100C14007B699A404FF0FF317B6901FA03F3D943B2
:100C24007B680B40134318462437BD465DF8047BAC
:100C34007047000080B485B000AFF860B9607A6096
:100C44000D4ABB6813441B781A46FB6813441B689F
:100C540023F0C0020849BB680B441B781946FB68A3
:100C64000B4419467B6813430B6000BF1437BD4621
:100C74005DF8047B704700BF0C32000880B485B077
:100C840000AFF860B9607A600D4ABB6813441B7802
:100C94001A46FB6813441B6823F490720849BB6826
:100CA4000B441B781946FB680B4419467B681343B5
:100CB4000B6000BF1437BD465DF8047B704700BF6E
:100CC4000C32000880B485B000AFF860B9607A6077
:100CD4000D4ABB6813441B781A46FB6813441B680F
:100CE40023F400720849BB680B441B781946FB685F
:100CF4000B4419467B6813430B6000BF1437BD4691
:100D04005DF8047B704700BF0C32000880B485B0E6
:100D140000AFF860B9607A600D4ABB6813441B7871
:100D24001A46FB6813441B6823F480620849BB68B5
:100D34000B441B781946FB680B4419467B68134324
:100D44000B6000BF1437BD465DF8047B704700BFDD
:100D54000C32000880B485B000AFF860B9607A60E6
:100D64000D4ABB6813441B781A46FB6813441B687E
:100D740023F4C0520849BB680B441B781946FB682E
:100D84000B4419467B6813430B6000BF1437BD4600
:100D94005DF8047B704700BF0C32000880B485B056
:100DA40000AFF860B9607A600D4ABB6813441B78E1
:100DB4001A46FB6813441B6823F4C0420849BB6805
:100DC4000B441B781946FB680B4419467B68134394
:100DD4000B6000BF1437BD465DF8047B704700BF4D
:100DE4000C32000880B485B000AFF860B9607A6056
:100DF4000D4ABB6813441B781A46FB6813441B68EE
:100E040023F440320849BB680B441B781946FB683D
:100E14000B4419467B6813430B6000BF1437BD466F
:100E24005DF8047B704700BF0C32000880B485B0C5
:100E340000AFF860B9607A600D4ABB6813441B7850
:100E44001A46FB6813441B6823F060620849BB68B8
:100E54000B441B781946FB680B4419467B68134303
:100E64000B6000BF1437BD465DF8047B704700BFBC
:100E74000C32000880B483B000AF786039600C4A4B
:100E84003B6813441B781A467B6813445B69084922
:100E94003A680A44127811467A680A4423F0040333
:100EA400536100BF0C37BD465DF8047B704700BF3B
:100EB4000C32000880B400AF054B1B68044A43F0B1
:100EC4000103136000BFBD465DF8047B704700BF9B
:100ED4000038024080B400AF064B1B6803F00203E5
:100EE400022B0CBF01230023DBB21846BD465DF87C
:100EF400047B70470038024080B483B000AF786050
:100F0400074B1B6823F0F8027B68DB00044913439A
:100F14000B6000BF0C37BD465DF8047B704700BF13
:100F24000038024080B483B000AF7860064B9B6801
:100F340023F0030204497B6813438B6000BF0C3722
:100F4400BD465DF8047B70470038024080B400AFB2
:100F5400044B9B6803F00C031846BD465DF8047B04
:100F6400704700BF0038024080B483B000AF78609F
:100F7400064B9B6823F0F00204497B6813438B60A3
:100F840000BF0C37BD465DF8047B70470038024053
:100F940080B483B000AF7860064B9B6823F4E052C2
:100FA40004497B6813438B6000BF0C37BD465DF872
:100FB400047B70470038024080B483B000AF78608F
:100FC400064B9B6823F4604204497B6813438B609F
:100FD40000BF0C37BD465DF8047B70470038024003
:100FE40080B483B000AF7860074BD3F88C3023F023
:100FF400807205497B681343C1F88C3000BF0C37FD
:10100400BD465DF8047B70470038024080B400AFF1
:10101400054B1B68044A43F08073136000BFBD4650
:101024005DF8047B704700BF0038024080B400AF15
:10103400074B1B6803F00073B3F1007F0CBF01235F
:101044000023DBB21846BD465DF8047B704700BF41
:101054000038024080B485B000AFF860B9607A60AF
:101064003B60114B5A68114B1340F968BA6811433D
:101074007A6892010A430C4913434B600A4B5B683C
:1010840023F4403208493B6813434B60064B5B68CA
:1010940023F0E04204493B6813434B6000BF14371C
:1010A400BD465DF8047B7047003802400080BFFFF6
:1010B40080B485B000AF7860084B1A6B07497B6831
:1010C40013430B63054B1A6B7B681340FB60FB688F
:1010D40000BF1437BD465DF8047B704700380240FA
:1010E40080B485B000AF7860084B1A6C07497B6800
:1010F40013430B64054B1A6C7B681340FB60FB685D
:1011040000BF1437BD465DF8047B704700380240C9
:1011140080B487B000AF78603960174A3B68DBB2AF
:10112400023352F823203B681B0CDB4302EA030121
:101134003B681B0C3B613B6993FAA3F3FB60FB68C0
:101144007B617B69002B01D1202303E07B69B3FA27
:1011540083F3DBB21A467B6803FA02F206483B6863
:10116400DBB20A43023340F8232000BF1C37BD46DC
:101174005DF8047B704700BF0038014080B483B041
:1011840000AF7860064B1B6823F00F0204497B68AC
:1011940013430B6000BF0C37BD465DF8047B7047FA
:1011A400003C024080B400AF044B1B6803F00F0303
:1011B4001846BD465DF8047B704700BF003C024002
:1011C40080B400AF054B1B68044A43F480331360BA
:1011D40000BFBD465DF8047B704700BF007000404F
:1011E40080B483B000AF7860064B1B6823F44042A0
:1011F40004497B6813430B6000BF0C37BD465DF8A0
:10120400047B70470070004080B483B000AF786006
:101214007B68DB6843F400527B68DA6000BF0C37FC
:10122400BD465DF8047B704780B483B000AF78603E
:101234007B681B6923F490427B681A617B685B6955
:1012440023F02A027B685A6100BF0C37BD465DF863
:10125400047B704780B48BB000AFF860B9607A60EB
:10126400FB681A68BB687B617B6993FAA3F33B61F3
:101274003B69BB61BB69002B01D1202303E0BB693F
:10128400B3FA83F3DBB25B00032101FA03F3DB431C
:101294001A40BB683B623B6A93FAA3F3FB61FB69A8
:1012A4007B627B6A002B01D1202303E07B6AB3FAC3
:1012B40083F3DBB25B00796801FA03F31A43FB683A
:1012C4001A6000BF2C37BD465DF8047B704780B4BC
:1012D4008BB000AFF860B9607A60FB68DA68BB680D
:1012E4007B617B6993FAA3F33B613B69BB61BB6997
:1012F400002B01D1202303E0BB69B3FA83F3DBB2F3
:101304005B00032101FA03F3DB431A40BB683B6231
:101314003B6A93FAA3F3FB61FB697B627B6A002B54
:1013240001D1202303E07B6AB3FA83F3DBB25B00D1
:10133400796801FA03F31A43FB68DA6000BF2C37BB
:10134400BD465DF8047B704780B483B000AF78601D
:1013540039603B681A047B689A6100BF0C37BD464C
:101364005DF8047B7047000080B500AF0520FFF7EF
:1013740005FF00BFFFF716FF0346052BFAD14FF414
:101384004040FFF72DFFFFF71BFF1020FFF7B4FDD0
:10139400FFF790FD00BFFFF79DFD0346012BFAD137
:1013A4000023B42208210020FFF754FEFFF72EFE8D
:1013B40000BFFFF73BFE0346012BFAD10020FFF7E5
:1013C400D3FD4FF4A050FFF7E3FD4FF40040FFF7C7
:1013D400F3FD0220FFF7A6FD00BFFFF7B7FD0346AC
:1013E400082BFAD1074801F0ABFA002000F074F999
:1013F4000346002B01D000F01BF90020FFF7F0FD9D
:1014040000BF80BD0095BA0A80B58EB000AF07F169
:101414001C0300221A605A609A60DA601A615A61E9
:101424009A613B1D00221A605A609A60DA601A6160
:101434005A614FF40030FFF753FE0120FFF738FEE6
:101444000C237B600223BB600323FB6000233B610E
:1014540000237B610723BB613B1D1946274800F02D
:101464008EFD4FF0006205212548FFF7DFFC0022C6
:1014740005212348FFF7DEFB002205212048FFF762
:10148400B1FC002205211E48FFF7F8FB00220521CC
:101494001B48FFF717FC4FF4806205211848FFF73B
:1014A40035FC002205211648FFF754FC00220521D3
:1014B4001348FFF773FC05211148FFF7DBFC4FF4D9
:1014C400E133FB6100233B6200237B620023BB62A8
:1014D4000C23FB6200233B6300237B6307F11C03A3
:1014E4001946084801F034F80648FFF79DFE054800
:1014F400FFF78AFE00BF3837BD4680BD00000240BA
:10150400006002400044004080B500AF4FF400107A
:10151400FFF7CEFDFFF704FB034600220021184627
:10152400FFF754FB034619461020FFF725FB102054
:10153400FFF704FB00BF80BD80B588B000AF07F1A2
:10154400180300221A605A603B4600221A605A604F
:101554009A60DA601A615A610420FFF7A9FD8020BD
:10156400FFF7A6FD0120FFF7A3FD0220FFF7A0FD72
:101574004FF4E1512248FFF7E7FE22490220FFF72A
:10158400C7FD4FF40053BB6101233B7700237B77F6
:101594000223BB7707F11803184601F079FA0122F8
:1015A4004FF400511848FFF792FE00224FF4005107
:1015B4001548FFF74FFE4FF4E1533B6001237B6076
:1015C4000023BB600023FB6000233B613B461946BC
:1015D4000B4800F0D4FCFFF7A3FA034600220021D5
:1015E4001846FFF7F3FA034619462820FFF7C4FA12
:1015F4002820FFF7A3FA00BF2037BD4680BD00BFF7
:10160400000002400300F0000008024080B582B0F0
:1016140000AF78607B681B68044A934201D101F0F3
:101624000DFC00BF0837BD4680BD00BF000C004064
:1016340080B400AF72B600BFFEE780B400AFFEE72F
:1016440080B400AFFEE780B400AFFEE780B400AF23
:10165400FEE780B400AFFEE780B400AF00BFBD4634
:101664005DF8047B704780B400AF00BFBD465DF8F1
:10167400047B704780B500AF024800F051F900BF09
:1016840080BD00BF4800002080B582B000AF0023B9
:101694007B60104B5B6C0F4A43F4804353640D4BE7
:1016A4005B6C03F480437B607B6800233B60094BE5
:1016B4001B6C084A43F080531364064B1B6C03F005
:1016C40080533B603B68072001F061FB00BF083793
:1016D400BD4680BD0038024080B58CB000AF786054
:1016E4000023FB620023BB6200227968322001F0F0
:1016F40059FB322001F072FB0023FB601F4B1B6C73
:101704001E4A43F0080313641C4B1B6C03F00803CC
:10171400FB60FB6807F1100207F114031146184639
:1017240001F056FA01F040FA03465B00FB62FB6AE3
:10173400134AA2FB03239B0C013BBB62114B124ACD
:101744001A60104B40F2E732DA600E4ABB6A53600B
:101754000C4B00221A610B4B00229A60094800F0DE
:1017640015F80346002B04D1064800F069F8034637
:1017740000E0012318463037BD4680BD00380240E2
:1017840083DE1B4348000020000C004080B582B07B
:1017940000AF78607B68002B01D1012341E07B68B6
:1017A40093F83D30DBB2002B06D17B68002283F82E
:1017B4003C20786800F039F87B68022283F83D20E9
:1017C4007B681A687B6804331946104600F0D8F920
:1017D4007B68012283F846207B68012283F83E203F
:1017E4007B68012283F83F207B68012283F8402034
:1017F4007B68012283F841207B68012283F8422020
:101804007B68012283F843207B68012283F844200B
:101814007B68012283F845207B68012283F83D2000
:10182400002318460837BD4680BD80B483B000AF9E
:10183400786000BF0C37BD465DF8047B704700003C
:1018440080B485B000AF78607B6893F83D30DBB23C
:10185400012B01D001234EE07B68022283F83D2056
:101864007B681B68DA687B681B6842F00102DA60F7
:101874007B681B68234A934222D07B681B68B3F1C0
:10188400804F1DD07B681B681F4A934218D07B6829
:101894001B681E4A934213D07B681B681C4A934200
:1018A4000ED07B681B681B4A934209D07B681B6877
:1018B400194A934204D07B681B68184A934211D199
:1018C4007B681B689B6803F00703FB60FB68062BBF
:1018D40010D07B681B681A687B681B6842F00102A1
:1018E4001A6007E07B681B681A687B681B6842F013
:1018F40001021A60002318461437BD465DF8047BC4
:10190400704700BF00000140000400400008004090
:10191400000C004000040140004001400018004059
:1019240080B582B000AF78607B681B681B6903F0E8
:101934000203022B22D17B681B68DB6803F00203DD
:10194400022B1BD17B681B686FF002021A617B6853
:1019540001221A777B681B689B6903F00303002B41
:1019640003D0786800F0EEF805E0786800F0E0F85D
:10197400786800F0F1F87B6800221A777B681B68AE
:101984001B6903F00403042B22D17B681B68DB680A
:1019940003F00403042B1BD17B681B686FF0040263
:1019A4001A617B6802221A777B681B689B6903F4BF
:1019B4004073002B03D0786800F0C4F805E0786821
:1019C40000F0B6F8786800F0C7F87B6800221A7750
:1019D4007B681B681B6903F00803082B22D17B6812
:1019E4001B68DB6803F00803082B1BD17B681B68AA
:1019F4006FF008021A617B6804221A777B681B68FF
:101A0400DB6903F00303002B03D0786800F09AF835
:101A140005E0786800F08CF8786800F09DF87B6841
:101A240000221A777B681B681B6903F01003102BD4
:101A340022D17B681B68DB6803F01003102B1BD1D9
:101A44007B681B686FF010021A617B6808221A77A2
:101A54007B681B68DB6903F44073002B03D0786850
:101A640000F070F805E0786800F062F8786800F03B
:101A740073F87B6800221A777B681B681B6903F084
:101A84000103012B0ED17B681B68DB6803F00103A3
:101A9400012B07D17B681B686FF001021A6178681B
:101AA400FFF7B4FD7B681B681B6903F08003802B80
:101AB4000ED17B681B68DB6803F08003802B07D1A1
:101AC4007B681B686FF080021A61786800F002F985
:101AD4007B681B681B6903F04003402B0ED17B68B5
:101AE4001B68DB6803F04003402B07D17B681B684D
:101AF4006FF040021A61786800F038F87B681B6860
:101B04001B6903F02003202B0ED17B681B68DB6864
:101B140003F02003202B07D17B681B686FF02002A1
:101B24001A61786800F0CCF800BF0837BD4680BD64
:101B340080B483B000AF786000BF0C37BD465DF859
:101B4400047B704780B483B000AF786000BF0C376B
:101B5400BD465DF8047B704780B483B000AF786005
:101B640000BF0C37BD465DF8047B704780B483B07A
:101B740000AF786000BF0C37BD465DF8047B70474A
:101B840080B485B000AF786039607B681B68FB6007
:101B94007B68404A934213D07B68B3F1804F0FD0E7
:101BA4007B683D4A93420BD07B683C4A934207D002
:101BB4007B683B4A934203D07B683A4A934208D1FC
:101BC400FB6823F07003FB603B685B68FA681343AF
:101BD400FB607B682F4A93422BD07B68B3F1804F24
:101BE40027D07B682C4A934223D07B682B4A9342AC
:101BF4001FD07B682A4A93421BD07B68294A9342B0
:101C040017D07B68284A934213D07B68274A9342B3
:101C14000FD07B68264A93420BD07B68254A9342B7
:101C240007D07B68244A934203D07B68234A9342BB
:101C340008D1FB6823F44073FB603B68DB68FA68F7
:101C44001343FB60FB6823F080023B685B6913432A
:101C5400FB607B68FA681A603B689A687B68DA62A2
:101C64003B681A687B689A627B680A4A934203D08D
:101C74007B680C4A934203D13B681A697B681A63F8
:101C84007B6801225A6100BF1437BD465DF8047BAE
:101C9400704700BF000001400004004000080040FD
:101CA400000C004000040140004001400044014099
:101CB4000048014000180040001C00400020004083
:101CC40080B483B000AF786000BF0C37BD465DF8C8
:101CD400047B704780B483B000AF786000BF0C37DA
:101CE400BD465DF8047B704780B48BB000AFF860EC
:101CF400B9607A60FB681A68BB687B617B6993FA98
:101D0400A3F33B613B69BB61BB69002B01D1202379
:101D140003E0BB69B3FA83F3DBB25B00032101FA8E
:101D240003F3DB431A40BB683B623B6A93FAA3F3B9
:101D3400FB61FB697B627B6A002B01D1202303E0FA
:101D44007B6AB3FA83F3DBB25B00796801FA03F3CD
:101D54001A43FB681A6000BF2C37BD465DF8047B4C
:101D6400704780B485B000AFF860B9607A60FB68F2
:101D74005A68BB68DB431A40BB68796801FB03F30C
:101D84001A43FB685A6000BF1437BD465DF8047BF4
:101D9400704780B48BB000AFF860B9607A60FB68BC
:101DA4009A68BB687B617B6993FAA3F33B613B69E7
:101DB400BB61BB69002B01D1202303E0BB69B3FAEB
:101DC40083F3DBB25B00032101FA03F3DB431A4024
:101DD400BB683B623B6A93FAA3F3FB61FB697B62DA
:101DE4007B6A002B01D1202303E07B6AB3FA83F3DF
:101DF400DBB25B00796801FA03F31A43FB689A606B
:101E040000BF2C37BD465DF8047B704780B48BB0AF
:101E140000AFF860B9607A60FB68DA68BB687B6120
:101E24007B6993FAA3F33B613B69BB61BB69002BFC
:101E340001D1202303E0BB69B3FA83F3DBB25B0077
:101E4400032101FA03F3DB431A40BB683B623B6A9C
:101E540093FAA3F3FB61FB697B627B6A002B01D1DC
:101E6400202303E07B6AB3FA83F3DBB25B00796877
:101E740001FA03F31A43FB68DA6000BF2C37BD464E
:101E84005DF8047B704780B48BB000AFF860B96034
:101E94007A60FB681A6ABB687B617B6993FAA3F377
:101EA4003B613B69BB61BB69002B01D1202303E08B
:101EB400BB69B3FA83F3DBB29B000F2101FA03F38E
:101EC400DB431A40BB683B623B6A93FAA3F3FB61B2
:101ED400FB697B627B6A002B01D1202303E07B6AD0
:101EE400B3FA83F3DBB29B00796801FA03F31A4374
:101EF400FB681A6200BF2C37BD465DF8047B70474F
:101F040080B48BB000AFF860B9607A60FB685A6A3D
:101F1400BB681B0A7B617B6993FAA3F33B613B6952
:101F2400BB61BB69002B01D1202303E0BB69B3FA79
:101F340083F3DBB29B000F2101FA03F3DB431A4066
:101F4400BB681B0A3B623B6A93FAA3F3FB61FB6920
:101F54007B627B6A002B01D1202303E07B6AB3FA06
:101F640083F3DBB29B00796801FA03F31A43FB683D
:101F74005A6200BF2C37BD465DF8047B704780B5BC
:101F84008AB000AF7860396000237B6200233B6233
:101F94003B681B68BB61BB6993FAA3F37B617B69F4
:101FA400FB61FB69002B01D1202303E0FB69B3FA39
:101FB40083F3DBB27B6257E03B681A6801217B6ADA
:101FC40001FA03F313403B623B6A002B49D03B68A0
:101FD4005B68012B03D03B685B68022B0DD13B6827
:101FE4009B681A46396A7868FFF7D3FE3B68DB685A
:101FF4001A46396A7868FFF7B4FE3B681B691A46CB
:10200400396A7868FFF702FF3B685B68022B21D1CD
:102014003B6AFB60FB6893FAA3F3BB60BB683B615C
:102024003B69002B01D1202303E03B69B3FA83F31E
:10203400DBB2072B07D83B685B691A46396A7868B4
:10204400FFF721FF06E03B685B691A46396A786846
:10205400FFF756FF3B685B681A46396A7868FFF7F2
:1020640043FE7B6A01337B623B681A687B6A22FA0F
:1020740003F3002BA0D1002318462837BD4680BDAA
:1020840080B483B000AF78607B68DB6803F40053EE
:10209400B3F5005F0CBF01230023DBB218460C37F5
:1020A400BD465DF8047B704780B483B000AF7860B0
:1020B40039607B681B6923F440523B681A437B6890
:1020C4001A6100BF0C37BD465DF8047B704780B4CD
:1020D40083B000AF786039607B685B6923F4407239
:1020E4003B681A437B685A6100BF0C37BD465DF8F4
:1020F400047B70472DE9B04FC0B000AFC7F8FC00B7
:10210400C7F8F810C7F8F420C7F8F030D7F8F4305F
:10211400B3F5004F40F00C81D7F8F8300022C7F82F
:10212400E830C7F8EC20D7E93A4522462B46911807
:1021340039665B417B66D7E91823214612EB010817
:10214400294643EB01094FF000024FF000034FEA28
:10215400C90343EA58734FEAC80290469946234696
:1021640018EB0303C7F8E0302B4649EB0303C7F829
:10217400E430D7F8F03000229A4693461AEB0A036B
:10218400BB654BEB0B03FB65D7E91623D7E9380195
:10219400FEF716F802460B46644BA3FB02235B09C9
:1021A4009BB21B019CB2D7F8F8300022C7F8D83094
:1021B400C7F8DC20D7E9368942464B469118396581
:1021C4005B417B65D7E9142341465118B9644946FC
:1021D4004B41FB644FF000024FF00003D7E912AB10
:1021E4005946CB00514643EA51735146CA00104642
:1021F4001946034642469B18C7F8D0304B460A4658
:1022040042EB0303C7F8D430D7F8F0300022C7F804
:10221400C830C7F8CC20D7E932120B46DB183B6430
:10222400134642EB03037B64D7E91023D7E9340157
:10223400FDF7C6FF02460B4611463C4BA3FB0123A8
:102244005B09642202FB03F3CB1ADB0003F13202C5
:10225400364BA3FB02235B099BB25B009BB203F4E6
:10226400F8739BB223449CB2D7F8F8300022C7F825
:10227400C030C7F8C420D7E9308942464B4691188C
:10228400B9635B41FB63D7E90E23414651183963B7
:1022940049464B417B634FF000024FF00003D7E9FE
:1022A4000CAB5946CB00514643EA51735146CA0020
:1022B40010461946034642469B18C7F8B8304B46A9
:1022C4000A4642EB0303C7F8BC30D7F8F0300022CB
:1022D400C7F8B030C7F8B420D7E92C120B46DB1886
:1022E400BB62134642EB0303FB62D7E90A23D7E937
:1022F4002E01FDF765FF02460B460C4BA3FB0213B0
:102304005B09642101FB03F3D31ADB003233074A70
:10231400A2FB03235B099BB203F007039BB2234494
:102324009BB21A46D7F8FC309A6008E11F85EB513E
:10233400D7F8F8300022C7F8A830C7F8AC20D7E99E
:102344002A8942464B46911839625B417B62D7E940
:10235400082341465418494643EB01054FF0000257
:102364004FF00003EB0043EA5473E20014461D46A9
:102374004346E318C7F8A0304B4645EB0303C7F8C0
:10238400A430D7F8F0300022C7F89830C7F89C2062
:102394004FF000024FF00003D7E9264529468B0091
:1023A400214643EA917321468A00D7E92801FDF7C3
:1023B40007FF02460B46654BA3FB02235B099BB256
:1023C4001B019CB2D7F8F8300022C7F89030C7F848
:1023D4009420D7E9248942464B469118B9615B4160
:1023E400FB61D7E9062341465118396149464B41FF
:1023F4007B614FF000024FF00003D7E904AB59466C
:10240400CB00514643EA51735146CA00104619465F
:10241400034642469B18C7F888304B460A4642EBAF
:102424000303C7F88C30D7F8F0300022C7F88030A7
:10243400C7F884204FF000024FF00003D7E9208949
:1024440049468B00414643EA917341468A00D7E9E5
:102454002201FDF7B5FE02460B4611463B4BA3FB9A
:1024640001235B09642202FB03F3CB1A1B01323301
:10247400364AA2FB03235B099BB203F0F0039BB231
:1024840023449CB2D7F8F8300022BB67FA67D7E937
:102494001E8942464B469118B9605B41FB60D7E9FF
:1024A400022341465118396049464B417B604FF045
:1024B40000024FF00003D7E900AB5946CB00514668
:1024C40043EA51735146CA00104619460346424630
:1024D4009B183B674B460A4642EB03037B67D7F8DE
:1024E400F0300022BB66FA664FF000024FF00003A2
:1024F400D7E91A8949468B00414643EA917341461C
:102504008A00D7E91C01FDF75BFE02460B460F4B20
:10251400A3FB02135B09642101FB03F3D31A1B0120
:1025240032330A4AA2FB03235B099BB203F00F0375
:102534009BB223449BB21A46D7F8FC309A6000BF82
:1025440007F58077BD46BDE8B08F00BF1F85EB510E
:1025540080B588B000AF786039600123FB77002331
:10256400BB617868FFF78CFD0346002B5ED17B6866
:10257400DB6823F4164323F00C033A6851683A6885
:10258400D26811433A68126911433A6892690A435E
:102594001A437B68DA603B689B6819467868FFF7E2
:1025A40083FD3B685B6919467868FFF790FD07F186
:1025B4000803184600F0CAF87B681F4A934202D108
:1025C4007B69BB6121E07B681C4A934202D13B6971
:1025D400BB611AE07B681A4A934202D13B69BB6132
:1025E40013E07B68174A934202D17B69BB610CE01C
:1025F4007B68154A934202D13B69BB6105E07B6865
:10260400124A934201D13B69BB61BB69002B0DD0D7
:102614003B681B68002B09D00023FB773B689A6951
:102624003B681B68B9697868FFF764FDFB7F18464F
:102634002037BD4680BD00BF00100140004400406B
:102644000048004000140140004C0040005000408D
:1026540080B400AF044B9B6803F00C031846BD46DE
:102664005DF8047B704700BF0038024080B400AFBF
:10267400044B9B6803F0F0031846BD465DF8047BE9
:10268400704700BF0038024080B400AF044B9B6821
:1026940003F4E0531846BD465DF8047B704700BF61
:1026A4000038024080B400AF044B9B6803F46043DD
:1026B4001846BD465DF8047B704700BF00380240F1
:1026C40080B400AF044B5B6803F480031846BD4636
:1026D4005DF8047B704700BF0038024080B400AF4F
:1026E400044B5B689B09C3F308031846BD465DF8B9
:1026F400047B70470038024080B400AF044B5B6831
:1027040003F440331846BD465DF8047B704700BFB0
:102714000038024080B400AF044B5B6803F0E04330
:102724001846BD465DF8047B704700BF0038024080
:1027340080B400AF044B5B6803F03F031846BD460A
:102744005DF8047B704700BF0038024080B582B05A
:1027540000AF786000F020F802467B681A607B685E
:102764001B68184600F05CF802467B685A607B6878
:102774005B68184600F06AF802467B689A607B68DA
:102784005B68184600F076F802467B68DA6000BFA2
:102794000837BD4680BD000080B582B000AF00237D
:1027A4007B60FFF755FF03460C2B2DD801A252F88E
:1027B40023F000BFED2700080D2800080D280008AD
:1027C4000D280008F32700080D2800080D2800082C
:1027D4000D280008F92700080D2800080D28000816
:1027E4000D280008032800080B4B7B600FE00B4BFF
:1027F4007B600CE0082000F051F8786007E00C20C2
:1028040000F04CF8786002E0034B7B6000BF7B680B
:1028140018460837BD4680BD0024F40000127A0033
:1028240080B582B000AF7860FFF720FF03461B0934
:1028340003F00F03044AD35C1A467B68D34018465E
:102844000837BD4680BD00BF1432000880B582B091
:1028540000AF7860FFF718FF03469B0A044AD35C75
:102864001A467B68D34018460837BD4680BD00BF72
:102874002432000880B582B000AF7860FFF712FF01
:1028840003465B0B044AD35C1A467B68D340184664
:102894000837BD4680BD00BF2432000890B587B01C
:1028A40000AF786000237B610023FB6000233B6161
:1028B400FFF706FFF860FB68002B04D0FB68B3F554
:1028C400800F03D005E01C4B7B6105E01B4B7B6153
:1028D40002E0194B7B6100BF7B68082B14D1FFF722
:1028E40027FF02467B69B3FBF2F4FFF7F7FE0346CA
:1028F40003FB04F4FFF700FF03461B0C01335B00EA
:10290400B4FBF3F33B6111E0FFF712FF02467B696E
:10291400B3FBF2F4FFF7E2FE034603FB04F4FFF714
:10292400F9FE03461B0FB4FBF3F33B613B69184606
:102934001C37BD4690BD00BF0024F40000127A008D
:1029440080B483B000AF7860044A7B68136000BF32
:102954000C37BD465DF8047B704700BF04000020BF
:1029640080B483B000AF7860054B1A6804497B6873
:1029740013430B6000BF0C37BD465DF8047B704702
:10298400003C014080B483B000AF7860064B1A6805
:102994007B68DB43044913400B6000BF0C37BD4622
:1029A4005DF8047B704700BF003C014080B483B0F5
:1029B40000AF7860054B5A6804497B6813434B6049
:1029C40000BF0C37BD465DF8047B7047003C0140F6
:1029D40080B483B000AF7860064B5A687B68DB43F1
:1029E400044913404B6000BF0C37BD465DF8047BBF
:1029F400704700BF003C014080B483B000AF7860F2
:102A0400054B9A6804497B6813438B6000BF0C37FD
:102A1400BD465DF8047B7047003C014080B483B040
:102A240000AF7860064B9A687B68DB430449134027
:102A34008B6000BF0C37BD465DF8047B704700BF58
:102A4400003C014080B483B000AF7860054BDA6885
:102A540004497B681343CB6000BF0C37BD465DF867
:102A6400047B7047003C014080B483B000AF7860C1
:102A7400064BDA687B68DB4304491340CB6000BF34
:102A84000C37BD465DF8047B704700BF003C014035
:102A940080B584B000AF78600023FB737B681B793A
:102AA400002B65D07B681B68002B6BD07B685B793F
:102AB400022B1CD0022B25DC002B02D0012B0BD0C7
:102AC40020E07B681B681846FFF782FF7B681B6861
:102AD4001846FFF745FF18E07B681B681846FFF7A8
:102AE40051FF7B681B681846FFF760FF0DE07B68A9
:102AF4001B681846FFF734FF7B681B681846FFF70E
:102B040055FF02E00123FB7300BF7B689B79002B18
:102B140038D07B689B79032B1CD0032B25DC012B3D
:102B240002D0022B0BD020E07B681B681846FFF70D
:102B34009BFF7B681B681846FFF75EFF22E07B68FB
:102B44001B681846FFF76AFF7B681B681846FFF787
:102B540079FF17E07B681B681846FFF74DFF7B6819
:102B64001B681846FFF76EFF0CE00123FB7309E0B6
:102B74007B681B681846FFF705FF7B681B681846CF
:102B8400FFF726FFFB7B18461037BD4680BD0000CB
:102B940080B400AF034B1B681846BD465DF8047B48
:102BA400704700BF0400002080B500AFFFF7F0FFBE
:102BB4000246054B9B689B0A03F007030349CB5C61
:102BC40022FA03F3184680BD00380240243200087C
:102BD40080B483B000AF786039607B680F221A60DC
:102BE400124B9B6803F003027B685A600F4B9B688F
:102BF40003F0F0027B689A600C4B9B6803F4E0528C
:102C04007B68DA60094B9B68DB0803F4E0527B685D
:102C14001A61074B1B6803F00F023B681A6000BF80
:102C24000C37BD465DF8047B704700BF0038024096
:102C3400003C024080B485B000AF78607B6803F04C
:102C44000703FB600C4BDB68BB60BA684FF6FF03FD
:102C54001340BB60FB681A02BB68134343F0BF63B5
:102C640043F40033BB60044ABB68D36000BF14372D
:102C7400BD465DF8047B704700ED00E080B400AF12
:102C8400044BDB681B0A03F007031846BD465DF8D6
:102C9400047B704700ED00E080B483B000AF0346CE
:102CA400FB7197F90730002B0BDBFB7903F01F0254
:102CB400074997F907305B09012000FA02F241F84D
:102CC400232000BF0C37BD465DF8047B704700BF6E
:102CD40000E100E080B483B000AF03463960FB71CB
:102CE40097F90730002B0ADB3B68DAB20C4997F9F5
:102CF40007301201D2B20B4483F800230AE03B6888
:102D0400DAB20849FB7903F00F03043B1201D2B293
:102D14000B441A7600BF0C37BD465DF8047B704740
:102D240000E100E000ED00E080B489B000AFF8609D
:102D3400B9607A60FB6803F00703FB61FB69C3F1C8
:102D44000703042B28BF0423BB61FB690433062B50
:102D540002D9FB69033B00E000237B614FF0FF32A3
:102D6400BB6902FA03F3DA43BB681A407B699A40F1
:102D74004FF0FF317B6901FA03F3D9437B680B40C1
:102D8400134318462437BD465DF8047B704780B56D
:102D940082B000AF78607868FFF74CFF00BF083757
:102DA400BD4680BD80B586B000AF0346B9607A6089
:102DB400FB7300237B61FFF761FF78617A68B96870
:102DC4007869FFF7B1FF024697F90F3011461846AC
:102DD400FFF780FF00BF1837BD4680BD80B582B0C5
:102DE40000AF0346FB7197F907301846FFF754FF0D
:102DF40000BF0837BD4680BD80B500AF0E4B1B68D1
:102E04000D4A43F4007313600B4B1B680A4A43F4E6
:102E140080631360084B1B68074A43F48073136094
:102E24000320FFF7B4FF0020FEF756FCFEF72CFC4E
:102E34000023184680BD00BF003C024080B400AFB0
:102E4400064B1B781A46064B1B681344044A13604E
:102E540000BFBD465DF8047B704700BF030000203F
:102E64009000002080B400AF064BD3F88830054AA8
:102E740043F47003C2F8883000BFBD465DF8047B9C
:102E8400704700BF00ED00E0DFF834D00D480E4974
:102E94000E4A002302E0D458C4500433C4188C42B0
:102EA400F9D30B4A0B4C002301E013600432A24215
:102EB400FBD3FFF7D7FF00F075F9FDF759FA704718
:102EC4000000022000000020080000203C3200081E
:102ED4000800002094000020FEE700002DE9F047E0
:102EE400089E0D4604460F46002B4AD18A4294465A
:102EF40065D9B2FA82F343B102FA03FCC3F12002AA
:102F04009F4020FA02F217439C404FEA1C4E1FFADE
:102F14008CF5B7FBFEF1220C0EFB117742EA074257
:102F240001FB05F090420AD91CEB020201F1FF37C4
:102F340080F01C81904240F2198102396244121AD5
:102F4400A4B2B2FBFEF00EFB102244EA024400FBE2
:102F540005F5A5420AD91CEB040400F1FF3280F008
:102F64000781A54240F204816444023840EA0140EA
:102F7400641B00211EB1DC400023C6E90043BDE808
:102F8400F0878B4208D9002E00F0ED800021C6E9BD
:102F940000050846BDE8F087B3FA83F1002949D15A
:102FA400AB4202D3824200F2F880841A65EB03023A
:102FB40001201746002EE2D0C6E90047DFE702B938
:102FC400FFDEB2FA82F3002B40F090808A1A4FEAB7
:102FD4001C471FFA8CFE0121B2FBF7F507FB1520F5
:102FE400220C42EA00420EFB05F0904208D91CEB89
:102FF400020205F1FF3802D2904200F2CB8045462E
:10300400121AA4B2B2FBF7F007FB102244EA0244FE
:103014000EFB00FEA64508D91CEB040400F1FF32A8
:1030240002D2A64500F2BB801046A4EB0E0440EA8F
:1030340005409FE7C1F120078B4022FA07FC4CEAC8
:10304400030C05FA01F420FA07F3FD404FEA1C498A
:103054002343B5FBF9F81FFA8CFE09FB18551C0C29
:1030640044EA054408FB0EF5A54202FA01F200FA0F
:1030740001F00BD91CEB040408F1FF3A80F08880BE
:10308400A54240F28580A8F102086444641B9DB205
:10309400B4FBF9F309FB134445EA044403FB0EFEB5
:1030A400A64508D91CEB040403F1FF356CD2A645F0
:1030B4006AD9023B644443EA0843A3FB0295A4EBA8
:1030C4000E04AC42C846AE4656D353D056B1B0EB0C
:1030D400080264EB0E0404FA07F7CA40CC40174315
:1030E400C6E9007418460021BDE8F087C3F1200149
:1030F40002FA03FC20FA01F225FA01F19D402A4369
:103104004FEA1C471FFA8CFEB1FBF7F007FB1015C2
:10311400110C41EA054100FB0EF58D4204FA03F45B
:1031240008D91CEB010100F1FF382FD28D422DD9B3
:1031340002386144491B92B2B1FBF7F507FB151144
:1031440042EA014205FB0EF1914208D91CEB02024E
:1031540005F1FF3816D2914214D9023D6244521A45
:1031640045EA004138E73146304608E73946E6E6A5
:103174001046FBE64845A9D2B9EB020865EB0C0EF4
:10318400013BA3E74546EAE72B4694E74046D1E7EF
:10319400D0467BE7023D624432E708460AE76444CE
:1031A400023842E770B50D4D0D4C641BA410002687
:1031B400A64209D10B4D0C4C00F018F8641BA41066
:1031C4000026A64205D170BD55F8043B9847013648
:1031D400EEE755F8043B98470136F2E7343200082D
:1031E400343200083432000838320008F8B500BF21
:1031F400F8BC08BC9E467047F8B500BFF8BC08BCD4
:043204009E4670472B
:1032080038000020102840587088A0B8000000003E
:10321800000000000102030406070809000000007E
:043228000102030498
:08322C00B4FCFF7F010000006B
:04323400610200082B
:04323800390200084F
:08323C00010000010024F40070
:0400000508002E8D34
:00000001FF
